{
  "_format": "hh-sol-artifact-1",
  "contractName": "JKPAdapter",
  "sourceName": "contracts/JKPAdapter.sol",
  "abi": [
    {
      "inputs": [],
      "stateMutability": "nonpayable",
      "type": "constructor"
    },
    {
      "inputs": [],
      "name": "getBalance",
      "outputs": [
        {
          "internalType": "uint256",
          "name": "",
          "type": "uint256"
        }
      ],
      "stateMutability": "view",
      "type": "function"
    },
    {
      "inputs": [],
      "name": "getBid",
      "outputs": [
        {
          "internalType": "uint256",
          "name": "",
          "type": "uint256"
        }
      ],
      "stateMutability": "view",
      "type": "function"
    },
    {
      "inputs": [],
      "name": "getCommission",
      "outputs": [
        {
          "internalType": "uint8",
          "name": "",
          "type": "uint8"
        }
      ],
      "stateMutability": "view",
      "type": "function"
    },
    {
      "inputs": [],
      "name": "getImplementationAddress",
      "outputs": [
        {
          "internalType": "address",
          "name": "",
          "type": "address"
        }
      ],
      "stateMutability": "view",
      "type": "function"
    },
    {
      "inputs": [],
      "name": "getLeaderboard",
      "outputs": [
        {
          "components": [
            {
              "internalType": "address",
              "name": "wallet",
              "type": "address"
            },
            {
              "internalType": "uint32",
              "name": "wins",
              "type": "uint32"
            }
          ],
          "internalType": "struct JKPLibrary.Player[]",
          "name": "",
          "type": "tuple[]"
        }
      ],
      "stateMutability": "view",
      "type": "function"
    },
    {
      "inputs": [],
      "name": "getResult",
      "outputs": [
        {
          "internalType": "string",
          "name": "",
          "type": "string"
        }
      ],
      "stateMutability": "view",
      "type": "function"
    },
    {
      "inputs": [],
      "name": "owner",
      "outputs": [
        {
          "internalType": "address",
          "name": "",
          "type": "address"
        }
      ],
      "stateMutability": "view",
      "type": "function"
    },
    {
      "inputs": [
        {
          "internalType": "enum JKPLibrary.Options",
          "name": "newChoice",
          "type": "uint8"
        }
      ],
      "name": "play",
      "outputs": [],
      "stateMutability": "payable",
      "type": "function"
    },
    {
      "inputs": [
        {
          "internalType": "uint256",
          "name": "newBid",
          "type": "uint256"
        }
      ],
      "name": "setBid",
      "outputs": [],
      "stateMutability": "nonpayable",
      "type": "function"
    },
    {
      "inputs": [
        {
          "internalType": "uint8",
          "name": "newCommission",
          "type": "uint8"
        }
      ],
      "name": "setCommission",
      "outputs": [],
      "stateMutability": "nonpayable",
      "type": "function"
    },
    {
      "inputs": [
        {
          "internalType": "address",
          "name": "newImplementation",
          "type": "address"
        }
      ],
      "name": "upgrade",
      "outputs": [],
      "stateMutability": "nonpayable",
      "type": "function"
    }
  ],
  "bytecode": "0x60a060405234801561001057600080fd5b503373ffffffffffffffffffffffffffffffffffffffff1660808173ffffffffffffffffffffffffffffffffffffffff16815250506080516117e46100756000396000818161027e0152818161087701528181610a0b0152610a4601526117e46000f3fe60806040526004361061009c5760003560e01c80636d763a6e116100645780636d763a6e146101675780638a44810d146101925780638da5cb5b146101bb578063cef55b9a146101e6578063de2927891461020f578063e65d6b491461023a5761009c565b80630900f010146100a1578063099a019d146100ca5780630cbcae70146100f557806312065fe01461012057806353a04b051461014b575b600080fd5b3480156100ad57600080fd5b506100c860048036038101906100c39190610e98565b610265565b005b3480156100d657600080fd5b506100df6103a5565b6040516100ec9190610ede565b60405180910390f35b34801561010157600080fd5b5061010a6104c9565b6040516101179190610f08565b60405180910390f35b34801561012c57600080fd5b506101356104f2565b6040516101429190610ede565b60405180910390f35b61016560048036038101906101609190610f48565b610616565b005b34801561017357600080fd5b5061017c610734565b6040516101899190611081565b60405180910390f35b34801561019e57600080fd5b506101b960048036038101906101b491906110dc565b61085e565b005b3480156101c757600080fd5b506101d0610a09565b6040516101dd9190610f08565b60405180910390f35b3480156101f257600080fd5b5061020d60048036038101906102089190611135565b610a2d565b005b34801561021b57600080fd5b50610224610bd8565b60405161023191906111f2565b60405180910390f35b34801561024657600080fd5b5061024f610d02565b60405161025c9190611223565b60405180910390f35b3373ffffffffffffffffffffffffffffffffffffffff167f000000000000000000000000000000000000000000000000000000000000000073ffffffffffffffffffffffffffffffffffffffff16146102f3576040517f08c379a00000000000000000000000000000000000000000000000000000000081526004016102ea9061128a565b60405180910390fd5b600073ffffffffffffffffffffffffffffffffffffffff168173ffffffffffffffffffffffffffffffffffffffff1603610362576040517f08c379a0000000000000000000000000000000000000000000000000000000008152600401610359906112f6565b60405180910390fd5b806000806101000a81548173ffffffffffffffffffffffffffffffffffffffff021916908373ffffffffffffffffffffffffffffffffffffffff16021790555050565b60008073ffffffffffffffffffffffffffffffffffffffff1660008054906101000a900473ffffffffffffffffffffffffffffffffffffffff1673ffffffffffffffffffffffffffffffffffffffff1603610435576040517f08c379a000000000000000000000000000000000000000000000000000000000815260040161042c90611362565b60405180910390fd5b60008054906101000a900473ffffffffffffffffffffffffffffffffffffffff1673ffffffffffffffffffffffffffffffffffffffff1663099a019d6040518163ffffffff1660e01b8152600401602060405180830381865afa1580156104a0573d6000803e3d6000fd5b505050506040513d601f19601f820116820180604052508101906104c49190611397565b905090565b60008060009054906101000a900473ffffffffffffffffffffffffffffffffffffffff16905090565b60008073ffffffffffffffffffffffffffffffffffffffff1660008054906101000a900473ffffffffffffffffffffffffffffffffffffffff1673ffffffffffffffffffffffffffffffffffffffff1603610582576040517f08c379a000000000000000000000000000000000000000000000000000000000815260040161057990611362565b60405180910390fd5b60008054906101000a900473ffffffffffffffffffffffffffffffffffffffff1673ffffffffffffffffffffffffffffffffffffffff166312065fe06040518163ffffffff1660e01b8152600401602060405180830381865afa1580156105ed573d6000803e3d6000fd5b505050506040513d601f19601f820116820180604052508101906106119190611397565b905090565b600073ffffffffffffffffffffffffffffffffffffffff1660008054906101000a900473ffffffffffffffffffffffffffffffffffffffff1673ffffffffffffffffffffffffffffffffffffffff16036106a5576040517f08c379a000000000000000000000000000000000000000000000000000000000815260040161069c90611362565b60405180910390fd5b60008054906101000a900473ffffffffffffffffffffffffffffffffffffffff1673ffffffffffffffffffffffffffffffffffffffff166353a04b0534836040518363ffffffff1660e01b81526004016106ff919061143b565b6000604051808303818588803b15801561071857600080fd5b505af115801561072c573d6000803e3d6000fd5b505050505050565b6060600073ffffffffffffffffffffffffffffffffffffffff1660008054906101000a900473ffffffffffffffffffffffffffffffffffffffff1673ffffffffffffffffffffffffffffffffffffffff16036107c5576040517f08c379a00000000000000000000000000000000000000000000000000000000081526004016107bc90611362565b60405180910390fd5b60008054906101000a900473ffffffffffffffffffffffffffffffffffffffff1673ffffffffffffffffffffffffffffffffffffffff16636d763a6e6040518163ffffffff1660e01b8152600401600060405180830381865afa158015610830573d6000803e3d6000fd5b505050506040513d6000823e3d601f19601f820116820180604052508101906108599190611634565b905090565b3373ffffffffffffffffffffffffffffffffffffffff167f000000000000000000000000000000000000000000000000000000000000000073ffffffffffffffffffffffffffffffffffffffff16146108ec576040517f08c379a00000000000000000000000000000000000000000000000000000000081526004016108e39061128a565b60405180910390fd5b600073ffffffffffffffffffffffffffffffffffffffff1660008054906101000a900473ffffffffffffffffffffffffffffffffffffffff1673ffffffffffffffffffffffffffffffffffffffff160361097b576040517f08c379a000000000000000000000000000000000000000000000000000000000815260040161097290611362565b60405180910390fd5b60008054906101000a900473ffffffffffffffffffffffffffffffffffffffff1673ffffffffffffffffffffffffffffffffffffffff16638a44810d826040518263ffffffff1660e01b81526004016109d49190611223565b600060405180830381600087803b1580156109ee57600080fd5b505af1158015610a02573d6000803e3d6000fd5b5050505050565b7f000000000000000000000000000000000000000000000000000000000000000081565b3373ffffffffffffffffffffffffffffffffffffffff167f000000000000000000000000000000000000000000000000000000000000000073ffffffffffffffffffffffffffffffffffffffff1614610abb576040517f08c379a0000000000000000000000000000000000000000000000000000000008152600401610ab29061128a565b60405180910390fd5b600073ffffffffffffffffffffffffffffffffffffffff1660008054906101000a900473ffffffffffffffffffffffffffffffffffffffff1673ffffffffffffffffffffffffffffffffffffffff1603610b4a576040517f08c379a0000000000000000000000000000000000000000000000000000000008152600401610b4190611362565b60405180910390fd5b60008054906101000a900473ffffffffffffffffffffffffffffffffffffffff1673ffffffffffffffffffffffffffffffffffffffff1663cef55b9a826040518263ffffffff1660e01b8152600401610ba39190610ede565b600060405180830381600087803b158015610bbd57600080fd5b505af1158015610bd1573d6000803e3d6000fd5b5050505050565b6060600073ffffffffffffffffffffffffffffffffffffffff1660008054906101000a900473ffffffffffffffffffffffffffffffffffffffff1673ffffffffffffffffffffffffffffffffffffffff1603610c69576040517f08c379a0000000000000000000000000000000000000000000000000000000008152600401610c6090611362565b60405180910390fd5b60008054906101000a900473ffffffffffffffffffffffffffffffffffffffff1673ffffffffffffffffffffffffffffffffffffffff1663de2927896040518163ffffffff1660e01b8152600401600060405180830381865afa158015610cd4573d6000803e3d6000fd5b505050506040513d6000823e3d601f19601f82011682018060405250810190610cfd9190611723565b905090565b60008073ffffffffffffffffffffffffffffffffffffffff1660008054906101000a900473ffffffffffffffffffffffffffffffffffffffff1673ffffffffffffffffffffffffffffffffffffffff1603610d92576040517f08c379a0000000000000000000000000000000000000000000000000000000008152600401610d8990611362565b60405180910390fd5b60008054906101000a900473ffffffffffffffffffffffffffffffffffffffff1673ffffffffffffffffffffffffffffffffffffffff1663e65d6b496040518163ffffffff1660e01b8152600401602060405180830381865afa158015610dfd573d6000803e3d6000fd5b505050506040513d601f19601f82011682018060405250810190610e219190611781565b905090565b6000604051905090565b600080fd5b600080fd5b600073ffffffffffffffffffffffffffffffffffffffff82169050919050565b6000610e6582610e3a565b9050919050565b610e7581610e5a565b8114610e8057600080fd5b50565b600081359050610e9281610e6c565b92915050565b600060208284031215610eae57610ead610e30565b5b6000610ebc84828501610e83565b91505092915050565b6000819050919050565b610ed881610ec5565b82525050565b6000602082019050610ef36000830184610ecf565b92915050565b610f0281610e5a565b82525050565b6000602082019050610f1d6000830184610ef9565b92915050565b60048110610f3057600080fd5b50565b600081359050610f4281610f23565b92915050565b600060208284031215610f5e57610f5d610e30565b5b6000610f6c84828501610f33565b91505092915050565b600081519050919050565b600082825260208201905092915050565b6000819050602082019050919050565b610faa81610e5a565b82525050565b600063ffffffff82169050919050565b610fc981610fb0565b82525050565b604082016000820151610fe56000850182610fa1565b506020820151610ff86020850182610fc0565b50505050565b600061100a8383610fcf565b60408301905092915050565b6000602082019050919050565b600061102e82610f75565b6110388185610f80565b935061104383610f91565b8060005b8381101561107457815161105b8882610ffe565b975061106683611016565b925050600181019050611047565b5085935050505092915050565b6000602082019050818103600083015261109b8184611023565b905092915050565b600060ff82169050919050565b6110b9816110a3565b81146110c457600080fd5b50565b6000813590506110d6816110b0565b92915050565b6000602082840312156110f2576110f1610e30565b5b6000611100848285016110c7565b91505092915050565b61111281610ec5565b811461111d57600080fd5b50565b60008135905061112f81611109565b92915050565b60006020828403121561114b5761114a610e30565b5b600061115984828501611120565b91505092915050565b600081519050919050565b600082825260208201905092915050565b60005b8381101561119c578082015181840152602081019050611181565b60008484015250505050565b6000601f19601f8301169050919050565b60006111c482611162565b6111ce818561116d565b93506111de81856020860161117e565b6111e7816111a8565b840191505092915050565b6000602082019050818103600083015261120c81846111b9565b905092915050565b61121d816110a3565b82525050565b60006020820190506112386000830184611214565b92915050565b7f596f7520646f206e6f742068617665207065726d697373696f6e000000000000600082015250565b6000611274601a8361116d565b915061127f8261123e565b602082019050919050565b600060208201905081810360008301526112a381611267565b9050919050565b7f5468652061646472657373206973207265717569726564000000000000000000600082015250565b60006112e060178361116d565b91506112eb826112aa565b602082019050919050565b6000602082019050818103600083015261130f816112d3565b9050919050565b7f596f75206d757374207570677261646520666972737400000000000000000000600082015250565b600061134c60168361116d565b915061135782611316565b602082019050919050565b6000602082019050818103600083015261137b8161133f565b9050919050565b60008151905061139181611109565b92915050565b6000602082840312156113ad576113ac610e30565b5b60006113bb84828501611382565b91505092915050565b7f4e487b7100000000000000000000000000000000000000000000000000000000600052602160045260246000fd5b60048110611404576114036113c4565b5b50565b6000819050611415826113f3565b919050565b600061142582611407565b9050919050565b6114358161141a565b82525050565b6000602082019050611450600083018461142c565b92915050565b600080fd5b7f4e487b7100000000000000000000000000000000000000000000000000000000600052604160045260246000fd5b611493826111a8565b810181811067ffffffffffffffff821117156114b2576114b161145b565b5b80604052505050565b60006114c5610e26565b90506114d1828261148a565b919050565b600067ffffffffffffffff8211156114f1576114f061145b565b5b602082029050602081019050919050565b600080fd5b600080fd5b60008151905061151b81610e6c565b92915050565b61152a81610fb0565b811461153557600080fd5b50565b60008151905061154781611521565b92915050565b60006040828403121561156357611562611507565b5b61156d60406114bb565b9050600061157d8482850161150c565b600083015250602061159184828501611538565b60208301525092915050565b60006115b06115ab846114d6565b6114bb565b905080838252602082019050604084028301858111156115d3576115d2611502565b5b835b818110156115fc57806115e8888261154d565b8452602084019350506040810190506115d5565b5050509392505050565b600082601f83011261161b5761161a611456565b5b815161162b84826020860161159d565b91505092915050565b60006020828403121561164a57611649610e30565b5b600082015167ffffffffffffffff81111561166857611667610e35565b5b61167484828501611606565b91505092915050565b600080fd5b600067ffffffffffffffff82111561169d5761169c61145b565b5b6116a6826111a8565b9050602081019050919050565b60006116c66116c184611682565b6114bb565b9050828152602081018484840111156116e2576116e161167d565b5b6116ed84828561117e565b509392505050565b600082601f83011261170a57611709611456565b5b815161171a8482602086016116b3565b91505092915050565b60006020828403121561173957611738610e30565b5b600082015167ffffffffffffffff81111561175757611756610e35565b5b611763848285016116f5565b91505092915050565b60008151905061177b816110b0565b92915050565b60006020828403121561179757611796610e30565b5b60006117a58482850161176c565b9150509291505056fea2646970667358221220563ae821edd330c5a248548c814abb74b0596b5201f40850a92d669535d256d564736f6c63430008180033",
  "linkReferences": {},
  "deployedLinkReferences": {}
}