{
  "contracts/JoKenPo.sol": {
    "JoKenPo": {
      "abi": [
        {
          "inputs": [],
          "stateMutability": "nonpayable",
          "type": "constructor"
        },
        {
          "inputs": [],
          "name": "getBalance",
          "outputs": [
            {
              "internalType": "uint256",
              "name": "",
              "type": "uint256"
            }
          ],
          "stateMutability": "view",
          "type": "function"
        },
        {
          "inputs": [],
          "name": "getBid",
          "outputs": [
            {
              "internalType": "uint256",
              "name": "",
              "type": "uint256"
            }
          ],
          "stateMutability": "view",
          "type": "function"
        },
        {
          "inputs": [],
          "name": "getCommission",
          "outputs": [
            {
              "internalType": "uint8",
              "name": "",
              "type": "uint8"
            }
          ],
          "stateMutability": "view",
          "type": "function"
        },
        {
          "inputs": [],
          "name": "getLeaderboard",
          "outputs": [
            {
              "components": [
                {
                  "internalType": "address",
                  "name": "wallet",
                  "type": "address"
                },
                {
                  "internalType": "uint32",
                  "name": "wins",
                  "type": "uint32"
                }
              ],
              "internalType": "struct JKPLibrary.Player[]",
              "name": "",
              "type": "tuple[]"
            }
          ],
          "stateMutability": "view",
          "type": "function"
        },
        {
          "inputs": [],
          "name": "getResult",
          "outputs": [
            {
              "internalType": "string",
              "name": "",
              "type": "string"
            }
          ],
          "stateMutability": "view",
          "type": "function"
        },
        {
          "inputs": [
            {
              "internalType": "enum JKPLibrary.Options",
              "name": "newChoice",
              "type": "uint8"
            }
          ],
          "name": "play",
          "outputs": [],
          "stateMutability": "payable",
          "type": "function"
        },
        {
          "inputs": [
            {
              "internalType": "uint256",
              "name": "",
              "type": "uint256"
            }
          ],
          "name": "players",
          "outputs": [
            {
              "internalType": "address",
              "name": "wallet",
              "type": "address"
            },
            {
              "internalType": "uint32",
              "name": "wins",
              "type": "uint32"
            }
          ],
          "stateMutability": "view",
          "type": "function"
        },
        {
          "inputs": [
            {
              "internalType": "uint256",
              "name": "newBid",
              "type": "uint256"
            }
          ],
          "name": "setBid",
          "outputs": [],
          "stateMutability": "nonpayable",
          "type": "function"
        },
        {
          "inputs": [
            {
              "internalType": "uint8",
              "name": "newCommission",
              "type": "uint8"
            }
          ],
          "name": "setCommission",
          "outputs": [],
          "stateMutability": "nonpayable",
          "type": "function"
        }
      ],
      "evm": {
        "bytecode": {
          "linkReferences": {},
          "object": "60a060405260008060006101000a81548160ff021916908360038111156200002c576200002b620000c1565b5b021790555060405180602001604052806000815250600190816200005191906200036a565b50662386f26fc10000600255600a600360006101000a81548160ff021916908360ff1602179055503480156200008657600080fd5b503373ffffffffffffffffffffffffffffffffffffffff1660808173ffffffffffffffffffffffffffffffffffffffff168152505062000451565b7f4e487b7100000000000000000000000000000000000000000000000000000000600052602160045260246000fd5b600081519050919050565b7f4e487b7100000000000000000000000000000000000000000000000000000000600052604160045260246000fd5b7f4e487b7100000000000000000000000000000000000000000000000000000000600052602260045260246000fd5b600060028204905060018216806200017257607f821691505b6020821081036200018857620001876200012a565b5b50919050565b60008190508160005260206000209050919050565b60006020601f8301049050919050565b600082821b905092915050565b600060088302620001f27fffffffffffffffffffffffffffffffffffffffffffffffffffffffffffffffff82620001b3565b620001fe8683620001b3565b95508019841693508086168417925050509392505050565b6000819050919050565b6000819050919050565b60006200024b620002456200023f8462000216565b62000220565b62000216565b9050919050565b6000819050919050565b62000267836200022a565b6200027f620002768262000252565b848454620001c0565b825550505050565b600090565b6200029662000287565b620002a38184846200025c565b505050565b5b81811015620002cb57620002bf6000826200028c565b600181019050620002a9565b5050565b601f8211156200031a57620002e4816200018e565b620002ef84620001a3565b81016020851015620002ff578190505b620003176200030e85620001a3565b830182620002a8565b50505b505050565b600082821c905092915050565b60006200033f600019846008026200031f565b1980831691505092915050565b60006200035a83836200032c565b9150826002028217905092915050565b6200037582620000f0565b67ffffffffffffffff811115620003915762000390620000fb565b5b6200039d825462000159565b620003aa828285620002cf565b600060209050601f831160018114620003e25760008415620003cd578287015190505b620003d985826200034c565b86555062000449565b601f198416620003f2866200018e565b60005b828110156200041c57848901518255600182019150602085019450602081019050620003f5565b868310156200043c578489015162000438601f8916826200032c565b8355505b6001600288020188555050505b505050505050565b6080516121866200048960003960008181610233015281816102b001528181610d2301528181610e60015261112a01526121866000f3fe6080604052600436106100865760003560e01c80638a44810d116100595780638a44810d14610128578063cef55b9a14610151578063de2927891461017a578063e65d6b49146101a5578063f71d96cb146101d057610086565b8063099a019d1461008b57806312065fe0146100b657806353a04b05146100e15780636d763a6e146100fd575b600080fd5b34801561009757600080fd5b506100a061020e565b6040516100ad9190611443565b60405180910390f35b3480156100c257600080fd5b506100cb610218565b6040516100d89190611443565b60405180910390f35b6100fb60048036038101906100f69190611488565b6102ae565b005b34801561010957600080fd5b506101126109e7565b60405161011f91906115f3565b60405180910390f35b34801561013457600080fd5b5061014f600480360381019061014a919061164e565b610d21565b005b34801561015d57600080fd5b50610178600480360381019061017391906116a7565b610e5e565b005b34801561018657600080fd5b5061018f610f87565b60405161019c9190611764565b60405180910390f35b3480156101b157600080fd5b506101ba611019565b6040516101c79190611795565b60405180910390f35b3480156101dc57600080fd5b506101f760048036038101906101f291906116a7565b611030565b6040516102059291906117ce565b60405180910390f35b6000600254905090565b60003273ffffffffffffffffffffffffffffffffffffffff167f000000000000000000000000000000000000000000000000000000000000000073ffffffffffffffffffffffffffffffffffffffff16146102a8576040517f08c379a000000000000000000000000000000000000000000000000000000000815260040161029f90611843565b60405180910390fd5b47905090565b7f000000000000000000000000000000000000000000000000000000000000000073ffffffffffffffffffffffffffffffffffffffff163273ffffffffffffffffffffffffffffffffffffffff160361033c576040517f08c379a0000000000000000000000000000000000000000000000000000000008152600401610333906118af565b60405180910390fd5b600060038111156103505761034f6118cf565b5b816003811115610363576103626118cf565b5b036103a3576040517f08c379a000000000000000000000000000000000000000000000000000000000815260040161039a9061194a565b60405180910390fd5b3273ffffffffffffffffffffffffffffffffffffffff16600060019054906101000a900473ffffffffffffffffffffffffffffffffffffffff1673ffffffffffffffffffffffffffffffffffffffff1603610433576040517f08c379a000000000000000000000000000000000000000000000000000000000815260040161042a906119b6565b60405180910390fd5b600254341015610478576040517f08c379a000000000000000000000000000000000000000000000000000000000815260040161046f90611a22565b60405180910390fd5b6000600381111561048c5761048b6118cf565b5b60008054906101000a900460ff1660038111156104ac576104ab6118cf565b5b036105485732600060016101000a81548173ffffffffffffffffffffffffffffffffffffffff021916908373ffffffffffffffffffffffffffffffffffffffff160217905550806000806101000a81548160ff02191690836003811115610516576105156118cf565b5b02179055506040518060600160405280603181526020016120dd60319139600190816105429190611c7d565b506109e4565b6001600381111561055c5761055b6118cf565b5b60008054906101000a900460ff16600381111561057c5761057b6118cf565b5b1480156105ac5750600380811115610597576105966118cf565b5b8160038111156105aa576105a96118cf565b5b145b156105fa576105f560405180606001604052806023815260200161209760239139600060019054906101000a900473ffffffffffffffffffffffffffffffffffffffff16611090565b6109e3565b6002600381111561060e5761060d6118cf565b5b60008054906101000a900460ff16600381111561062e5761062d6118cf565b5b14801561065f57506001600381111561064a576106496118cf565b5b81600381111561065d5761065c6118cf565b5b145b156106ca576106c56040518060400160405280601f81526020017f506170657220777261707320726f636b2e20506c61796572203120776f6e2e00815250600060019054906101000a900473ffffffffffffffffffffffffffffffffffffffff16611090565b6109e2565b6003808111156106dd576106dc6118cf565b5b60008054906101000a900460ff1660038111156106fd576106fc6118cf565b5b14801561072e575060026003811115610719576107186118cf565b5b81600381111561072c5761072b6118cf565b5b145b1561077c5761077760405180606001604052806022815260200161210e60229139600060019054906101000a900473ffffffffffffffffffffffffffffffffffffffff16611090565b6109e1565b60038081111561078f5761078e6118cf565b5b60008054906101000a900460ff1660038111156107af576107ae6118cf565b5b1480156107e05750600160038111156107cb576107ca6118cf565b5b8160038111156107de576107dd6118cf565b5b145b1561080c576108076040518060600160405280602381526020016120ba6023913932611090565b6109e0565b600160038111156108205761081f6118cf565b5b60008054906101000a900460ff1660038111156108405761083f6118cf565b5b14801561087157506002600381111561085c5761085b6118cf565b5b81600381111561086f5761086e6118cf565b5b145b156108ba576108b56040518060400160405280601f81526020017f506170657220777261707320726f636b2e20506c61796572203220776f6e2e0081525032611090565b6109df565b600260038111156108ce576108cd6118cf565b5b60008054906101000a900460ff1660038111156108ee576108ed6118cf565b5b14801561091e5750600380811115610909576109086118cf565b5b81600381111561091c5761091b6118cf565b5b145b1561094a576109456040518060600160405280602281526020016120756022913932611090565b6109de565b60405180606001604052806021815260200161213060219139600190816109719190611c7d565b5060008060016101000a81548173ffffffffffffffffffffffffffffffffffffffff021916908373ffffffffffffffffffffffffffffffffffffffff16021790555060008060006101000a81548160ff021916908360038111156109d8576109d76118cf565b5b02179055505b5b5b5b5b5b5b50565b606060026004805490501015610ace576004805480602002602001604051908101604052809291908181526020016000905b82821015610ac3578382906000526020600020016040518060400160405290816000820160009054906101000a900473ffffffffffffffffffffffffffffffffffffffff1673ffffffffffffffffffffffffffffffffffffffff1673ffffffffffffffffffffffffffffffffffffffff1681526020016000820160149054906101000a900463ffffffff1663ffffffff1663ffffffff168152505081526020019060010190610a19565b505050509050610d1e565b600060048054905067ffffffffffffffff811115610aef57610aee611a42565b5b604051908082528060200260200182016040528015610b2857816020015b610b156113f4565b815260200190600190039081610b0d5790505b50905060005b600480549050811015610c0b5760048181548110610b4f57610b4e611d4f565b5b906000526020600020016040518060400160405290816000820160009054906101000a900473ffffffffffffffffffffffffffffffffffffffff1673ffffffffffffffffffffffffffffffffffffffff1673ffffffffffffffffffffffffffffffffffffffff1681526020016000820160149054906101000a900463ffffffff1663ffffffff1663ffffffff1681525050828281518110610bf357610bf2611d4f565b5b60200260200101819052508080600101915050610b2e565b5060005b60018251610c1d9190611dad565b811015610d18576000600190505b8251811015610d0a57828181518110610c4757610c46611d4f565b5b60200260200101516020015163ffffffff16838381518110610c6c57610c6b611d4f565b5b60200260200101516020015163ffffffff161015610cfd576000838381518110610c9957610c98611d4f565b5b60200260200101519050838281518110610cb657610cb5611d4f565b5b6020026020010151848481518110610cd157610cd0611d4f565b5b602002602001018190525080848381518110610cf057610cef611d4f565b5b6020026020010181905250505b8080600101915050610c2b565b508080600101915050610c0f565b50809150505b90565b7f000000000000000000000000000000000000000000000000000000000000000073ffffffffffffffffffffffffffffffffffffffff163273ffffffffffffffffffffffffffffffffffffffff1614610daf576040517f08c379a0000000000000000000000000000000000000000000000000000000008152600401610da690611e2d565b60405180910390fd5b600073ffffffffffffffffffffffffffffffffffffffff16600060019054906101000a900473ffffffffffffffffffffffffffffffffffffffff1673ffffffffffffffffffffffffffffffffffffffff1614610e40576040517f08c379a0000000000000000000000000000000000000000000000000000000008152600401610e3790611ebf565b60405180910390fd5b80600360006101000a81548160ff021916908360ff16021790555050565b7f000000000000000000000000000000000000000000000000000000000000000073ffffffffffffffffffffffffffffffffffffffff163273ffffffffffffffffffffffffffffffffffffffff1614610eec576040517f08c379a0000000000000000000000000000000000000000000000000000000008152600401610ee390611e2d565b60405180910390fd5b600073ffffffffffffffffffffffffffffffffffffffff16600060019054906101000a900473ffffffffffffffffffffffffffffffffffffffff1673ffffffffffffffffffffffffffffffffffffffff1614610f7d576040517f08c379a0000000000000000000000000000000000000000000000000000000008152600401610f7490611f51565b60405180910390fd5b8060028190555050565b606060018054610f9690611aa0565b80601f0160208091040260200160405190810160405280929190818152602001828054610fc290611aa0565b801561100f5780601f10610fe45761010080835404028352916020019161100f565b820191906000526020600020905b815481529060010190602001808311610ff257829003601f168201915b5050505050905090565b6000600360009054906101000a900460ff16905090565b6004818154811061104057600080fd5b906000526020600020016000915090508060000160009054906101000a900473ffffffffffffffffffffffffffffffffffffffff16908060000160149054906101000a900463ffffffff16905082565b60003090508173ffffffffffffffffffffffffffffffffffffffff166108fc600360009054906101000a900460ff1660646110cb9190611f71565b60ff1660648473ffffffffffffffffffffffffffffffffffffffff16316110f29190611fd5565b6110fc9190612006565b9081150290604051600060405180830381858888f19350505050158015611127573d6000803e3d6000fd5b507f000000000000000000000000000000000000000000000000000000000000000073ffffffffffffffffffffffffffffffffffffffff166108fc8273ffffffffffffffffffffffffffffffffffffffff16319081150290604051600060405180830381858888f193505050501580156111a5573d6000803e3d6000fd5b506111af8261122f565b82600190816111be9190611c7d565b5060008060016101000a81548173ffffffffffffffffffffffffffffffffffffffff021916908373ffffffffffffffffffffffffffffffffffffffff16021790555060008060006101000a81548160ff02191690836003811115611225576112246118cf565b5b0217905550505050565b60005b600480549050811015611326578173ffffffffffffffffffffffffffffffffffffffff166004828154811061126a57611269611d4f565b5b9060005260206000200160000160009054906101000a900473ffffffffffffffffffffffffffffffffffffffff1673ffffffffffffffffffffffffffffffffffffffff160361131957600481815481106112c7576112c6611d4f565b5b90600052602060002001600001601481819054906101000a900463ffffffff16809291906112f490612048565b91906101000a81548163ffffffff021916908363ffffffff16021790555050506113f1565b8080600101915050611232565b50600460405180604001604052808373ffffffffffffffffffffffffffffffffffffffff168152602001600163ffffffff168152509080600181540180825580915050600190039060005260206000200160009091909190915060008201518160000160006101000a81548173ffffffffffffffffffffffffffffffffffffffff021916908373ffffffffffffffffffffffffffffffffffffffff16021790555060208201518160000160146101000a81548163ffffffff021916908363ffffffff16021790555050505b50565b6040518060400160405280600073ffffffffffffffffffffffffffffffffffffffff168152602001600063ffffffff1681525090565b6000819050919050565b61143d8161142a565b82525050565b60006020820190506114586000830184611434565b92915050565b600080fd5b6004811061147057600080fd5b50565b60008135905061148281611463565b92915050565b60006020828403121561149e5761149d61145e565b5b60006114ac84828501611473565b91505092915050565b600081519050919050565b600082825260208201905092915050565b6000819050602082019050919050565b600073ffffffffffffffffffffffffffffffffffffffff82169050919050565b600061150c826114e1565b9050919050565b61151c81611501565b82525050565b600063ffffffff82169050919050565b61153b81611522565b82525050565b6040820160008201516115576000850182611513565b50602082015161156a6020850182611532565b50505050565b600061157c8383611541565b60408301905092915050565b6000602082019050919050565b60006115a0826114b5565b6115aa81856114c0565b93506115b5836114d1565b8060005b838110156115e65781516115cd8882611570565b97506115d883611588565b9250506001810190506115b9565b5085935050505092915050565b6000602082019050818103600083015261160d8184611595565b905092915050565b600060ff82169050919050565b61162b81611615565b811461163657600080fd5b50565b60008135905061164881611622565b92915050565b6000602082840312156116645761166361145e565b5b600061167284828501611639565b91505092915050565b6116848161142a565b811461168f57600080fd5b50565b6000813590506116a18161167b565b92915050565b6000602082840312156116bd576116bc61145e565b5b60006116cb84828501611692565b91505092915050565b600081519050919050565b600082825260208201905092915050565b60005b8381101561170e5780820151818401526020810190506116f3565b60008484015250505050565b6000601f19601f8301169050919050565b6000611736826116d4565b61174081856116df565b93506117508185602086016116f0565b6117598161171a565b840191505092915050565b6000602082019050818103600083015261177e818461172b565b905092915050565b61178f81611615565b82525050565b60006020820190506117aa6000830184611786565b92915050565b6117b981611501565b82525050565b6117c881611522565b82525050565b60006040820190506117e360008301856117b0565b6117f060208301846117bf565b9392505050565b7f596f7520646f206e6f7420686176652074686973207065726d697373696f6e00600082015250565b600061182d601f836116df565b9150611838826117f7565b602082019050919050565b6000602082019050818103600083015261185c81611820565b9050919050565b7f546865206f776e65722063616e6e6f7420706c61790000000000000000000000600082015250565b60006118996015836116df565b91506118a482611863565b602082019050919050565b600060208201905081810360008301526118c88161188c565b9050919050565b7f4e487b7100000000000000000000000000000000000000000000000000000000600052602160045260246000fd5b7f496e76616c69642063686f696365000000000000000000000000000000000000600082015250565b6000611934600e836116df565b915061193f826118fe565b602082019050919050565b6000602082019050818103600083015261196381611927565b9050919050565b7f576169742074686520616e6f7468657220706c61796572000000000000000000600082015250565b60006119a06017836116df565b91506119ab8261196a565b602082019050919050565b600060208201905081810360008301526119cf81611993565b9050919050565b7f496e76616c696420626964000000000000000000000000000000000000000000600082015250565b6000611a0c600b836116df565b9150611a17826119d6565b602082019050919050565b60006020820190508181036000830152611a3b816119ff565b9050919050565b7f4e487b7100000000000000000000000000000000000000000000000000000000600052604160045260246000fd5b7f4e487b7100000000000000000000000000000000000000000000000000000000600052602260045260246000fd5b60006002820490506001821680611ab857607f821691505b602082108103611acb57611aca611a71565b5b50919050565b60008190508160005260206000209050919050565b60006020601f8301049050919050565b600082821b905092915050565b600060088302611b337fffffffffffffffffffffffffffffffffffffffffffffffffffffffffffffffff82611af6565b611b3d8683611af6565b95508019841693508086168417925050509392505050565b6000819050919050565b6000611b7a611b75611b708461142a565b611b55565b61142a565b9050919050565b6000819050919050565b611b9483611b5f565b611ba8611ba082611b81565b848454611b03565b825550505050565b600090565b611bbd611bb0565b611bc8818484611b8b565b505050565b5b81811015611bec57611be1600082611bb5565b600181019050611bce565b5050565b601f821115611c3157611c0281611ad1565b611c0b84611ae6565b81016020851015611c1a578190505b611c2e611c2685611ae6565b830182611bcd565b50505b505050565b600082821c905092915050565b6000611c5460001984600802611c36565b1980831691505092915050565b6000611c6d8383611c43565b9150826002028217905092915050565b611c86826116d4565b67ffffffffffffffff811115611c9f57611c9e611a42565b5b611ca98254611aa0565b611cb4828285611bf0565b600060209050601f831160018114611ce75760008415611cd5578287015190505b611cdf8582611c61565b865550611d47565b601f198416611cf586611ad1565b60005b82811015611d1d57848901518255600182019150602085019450602081019050611cf8565b86831015611d3a5784890151611d36601f891682611c43565b8355505b6001600288020188555050505b505050505050565b7f4e487b7100000000000000000000000000000000000000000000000000000000600052603260045260246000fd5b7f4e487b7100000000000000000000000000000000000000000000000000000000600052601160045260246000fd5b6000611db88261142a565b9150611dc38361142a565b9250828203905081811115611ddb57611dda611d7e565b5b92915050565b7f596f7520646f206e6f742068617665207065726d697373696f6e000000000000600082015250565b6000611e17601a836116df565b9150611e2282611de1565b602082019050919050565b60006020820190508181036000830152611e4681611e0a565b9050919050565b7f596f752063616e6e6f74206368616e67652074686520636f6d6d697373696f6e60008201527f207769746820612067616d6520696e2070726f67726573730000000000000000602082015250565b6000611ea96038836116df565b9150611eb482611e4d565b604082019050919050565b60006020820190508181036000830152611ed881611e9c565b9050919050565b7f596f752063616e6e6f74206368616e676520746865206269642077697468206160008201527f2067616d6520696e2070726f6772657373000000000000000000000000000000602082015250565b6000611f3b6031836116df565b9150611f4682611edf565b604082019050919050565b60006020820190508181036000830152611f6a81611f2e565b9050919050565b6000611f7c82611615565b9150611f8783611615565b9250828203905060ff811115611fa057611f9f611d7e565b5b92915050565b7f4e487b7100000000000000000000000000000000000000000000000000000000600052601260045260246000fd5b6000611fe08261142a565b9150611feb8361142a565b925082611ffb57611ffa611fa6565b5b828204905092915050565b60006120118261142a565b915061201c8361142a565b925082820261202a8161142a565b9150828204841483151761204157612040611d7e565b5b5092915050565b600061205382611522565b915063ffffffff820361206957612068611d7e565b5b60018201905091905056fe53636973736f727320637574732070617065722e20506c61796572203220776f6e2e526f636b20627265616b732073636973736f72732e20506c61796572203120776f6e2e526f636b20627265616b732073636973736f72732e20506c61796572203220776f6e2e506c6179657220312063686f6f7365206869732f686572206f7074696f6e2e2057616974696e6720706c6179657220322e53636973736f727320637574732070617065722e20506c61796572203120776f6e2e447261772067616d652e20546865207072697a652077617320646f75626c65642ea2646970667358221220b3264cc7b3a63aec468978609d9565d286c7efe49c1982c5f46b1d22a8ec7d6a64736f6c63430008180033",
          "opcodes": "PUSH1 0xA0 PUSH1 0x40 MSTORE PUSH1 0x0 DUP1 PUSH1 0x0 PUSH2 0x100 EXP DUP2 SLOAD DUP2 PUSH1 0xFF MUL NOT AND SWAP1 DUP4 PUSH1 0x3 DUP2 GT ISZERO PUSH3 0x2C JUMPI PUSH3 0x2B PUSH3 0xC1 JUMP JUMPDEST JUMPDEST MUL OR SWAP1 SSTORE POP PUSH1 0x40 MLOAD DUP1 PUSH1 0x20 ADD PUSH1 0x40 MSTORE DUP1 PUSH1 0x0 DUP2 MSTORE POP PUSH1 0x1 SWAP1 DUP2 PUSH3 0x51 SWAP2 SWAP1 PUSH3 0x36A JUMP JUMPDEST POP PUSH7 0x2386F26FC10000 PUSH1 0x2 SSTORE PUSH1 0xA PUSH1 0x3 PUSH1 0x0 PUSH2 0x100 EXP DUP2 SLOAD DUP2 PUSH1 0xFF MUL NOT AND SWAP1 DUP4 PUSH1 0xFF AND MUL OR SWAP1 SSTORE POP CALLVALUE DUP1 ISZERO PUSH3 0x86 JUMPI PUSH1 0x0 DUP1 REVERT JUMPDEST POP CALLER PUSH20 0xFFFFFFFFFFFFFFFFFFFFFFFFFFFFFFFFFFFFFFFF AND PUSH1 0x80 DUP2 PUSH20 0xFFFFFFFFFFFFFFFFFFFFFFFFFFFFFFFFFFFFFFFF AND DUP2 MSTORE POP POP PUSH3 0x451 JUMP JUMPDEST PUSH32 0x4E487B7100000000000000000000000000000000000000000000000000000000 PUSH1 0x0 MSTORE PUSH1 0x21 PUSH1 0x4 MSTORE PUSH1 0x24 PUSH1 0x0 REVERT JUMPDEST PUSH1 0x0 DUP2 MLOAD SWAP1 POP SWAP2 SWAP1 POP JUMP JUMPDEST PUSH32 0x4E487B7100000000000000000000000000000000000000000000000000000000 PUSH1 0x0 MSTORE PUSH1 0x41 PUSH1 0x4 MSTORE PUSH1 0x24 PUSH1 0x0 REVERT JUMPDEST PUSH32 0x4E487B7100000000000000000000000000000000000000000000000000000000 PUSH1 0x0 MSTORE PUSH1 0x22 PUSH1 0x4 MSTORE PUSH1 0x24 PUSH1 0x0 REVERT JUMPDEST PUSH1 0x0 PUSH1 0x2 DUP3 DIV SWAP1 POP PUSH1 0x1 DUP3 AND DUP1 PUSH3 0x172 JUMPI PUSH1 0x7F DUP3 AND SWAP2 POP JUMPDEST PUSH1 0x20 DUP3 LT DUP2 SUB PUSH3 0x188 JUMPI PUSH3 0x187 PUSH3 0x12A JUMP JUMPDEST JUMPDEST POP SWAP2 SWAP1 POP JUMP JUMPDEST PUSH1 0x0 DUP2 SWAP1 POP DUP2 PUSH1 0x0 MSTORE PUSH1 0x20 PUSH1 0x0 KECCAK256 SWAP1 POP SWAP2 SWAP1 POP JUMP JUMPDEST PUSH1 0x0 PUSH1 0x20 PUSH1 0x1F DUP4 ADD DIV SWAP1 POP SWAP2 SWAP1 POP JUMP JUMPDEST PUSH1 0x0 DUP3 DUP3 SHL SWAP1 POP SWAP3 SWAP2 POP POP JUMP JUMPDEST PUSH1 0x0 PUSH1 0x8 DUP4 MUL PUSH3 0x1F2 PUSH32 0xFFFFFFFFFFFFFFFFFFFFFFFFFFFFFFFFFFFFFFFFFFFFFFFFFFFFFFFFFFFFFFFF DUP3 PUSH3 0x1B3 JUMP JUMPDEST PUSH3 0x1FE DUP7 DUP4 PUSH3 0x1B3 JUMP JUMPDEST SWAP6 POP DUP1 NOT DUP5 AND SWAP4 POP DUP1 DUP7 AND DUP5 OR SWAP3 POP POP POP SWAP4 SWAP3 POP POP POP JUMP JUMPDEST PUSH1 0x0 DUP2 SWAP1 POP SWAP2 SWAP1 POP JUMP JUMPDEST PUSH1 0x0 DUP2 SWAP1 POP SWAP2 SWAP1 POP JUMP JUMPDEST PUSH1 0x0 PUSH3 0x24B PUSH3 0x245 PUSH3 0x23F DUP5 PUSH3 0x216 JUMP JUMPDEST PUSH3 0x220 JUMP JUMPDEST PUSH3 0x216 JUMP JUMPDEST SWAP1 POP SWAP2 SWAP1 POP JUMP JUMPDEST PUSH1 0x0 DUP2 SWAP1 POP SWAP2 SWAP1 POP JUMP JUMPDEST PUSH3 0x267 DUP4 PUSH3 0x22A JUMP JUMPDEST PUSH3 0x27F PUSH3 0x276 DUP3 PUSH3 0x252 JUMP JUMPDEST DUP5 DUP5 SLOAD PUSH3 0x1C0 JUMP JUMPDEST DUP3 SSTORE POP POP POP POP JUMP JUMPDEST PUSH1 0x0 SWAP1 JUMP JUMPDEST PUSH3 0x296 PUSH3 0x287 JUMP JUMPDEST PUSH3 0x2A3 DUP2 DUP5 DUP5 PUSH3 0x25C JUMP JUMPDEST POP POP POP JUMP JUMPDEST JUMPDEST DUP2 DUP2 LT ISZERO PUSH3 0x2CB JUMPI PUSH3 0x2BF PUSH1 0x0 DUP3 PUSH3 0x28C JUMP JUMPDEST PUSH1 0x1 DUP2 ADD SWAP1 POP PUSH3 0x2A9 JUMP JUMPDEST POP POP JUMP JUMPDEST PUSH1 0x1F DUP3 GT ISZERO PUSH3 0x31A JUMPI PUSH3 0x2E4 DUP2 PUSH3 0x18E JUMP JUMPDEST PUSH3 0x2EF DUP5 PUSH3 0x1A3 JUMP JUMPDEST DUP2 ADD PUSH1 0x20 DUP6 LT ISZERO PUSH3 0x2FF JUMPI DUP2 SWAP1 POP JUMPDEST PUSH3 0x317 PUSH3 0x30E DUP6 PUSH3 0x1A3 JUMP JUMPDEST DUP4 ADD DUP3 PUSH3 0x2A8 JUMP JUMPDEST POP POP JUMPDEST POP POP POP JUMP JUMPDEST PUSH1 0x0 DUP3 DUP3 SHR SWAP1 POP SWAP3 SWAP2 POP POP JUMP JUMPDEST PUSH1 0x0 PUSH3 0x33F PUSH1 0x0 NOT DUP5 PUSH1 0x8 MUL PUSH3 0x31F JUMP JUMPDEST NOT DUP1 DUP4 AND SWAP2 POP POP SWAP3 SWAP2 POP POP JUMP JUMPDEST PUSH1 0x0 PUSH3 0x35A DUP4 DUP4 PUSH3 0x32C JUMP JUMPDEST SWAP2 POP DUP3 PUSH1 0x2 MUL DUP3 OR SWAP1 POP SWAP3 SWAP2 POP POP JUMP JUMPDEST PUSH3 0x375 DUP3 PUSH3 0xF0 JUMP JUMPDEST PUSH8 0xFFFFFFFFFFFFFFFF DUP2 GT ISZERO PUSH3 0x391 JUMPI PUSH3 0x390 PUSH3 0xFB JUMP JUMPDEST JUMPDEST PUSH3 0x39D DUP3 SLOAD PUSH3 0x159 JUMP JUMPDEST PUSH3 0x3AA DUP3 DUP3 DUP6 PUSH3 0x2CF JUMP JUMPDEST PUSH1 0x0 PUSH1 0x20 SWAP1 POP PUSH1 0x1F DUP4 GT PUSH1 0x1 DUP2 EQ PUSH3 0x3E2 JUMPI PUSH1 0x0 DUP5 ISZERO PUSH3 0x3CD JUMPI DUP3 DUP8 ADD MLOAD SWAP1 POP JUMPDEST PUSH3 0x3D9 DUP6 DUP3 PUSH3 0x34C JUMP JUMPDEST DUP7 SSTORE POP PUSH3 0x449 JUMP JUMPDEST PUSH1 0x1F NOT DUP5 AND PUSH3 0x3F2 DUP7 PUSH3 0x18E JUMP JUMPDEST PUSH1 0x0 JUMPDEST DUP3 DUP2 LT ISZERO PUSH3 0x41C JUMPI DUP5 DUP10 ADD MLOAD DUP3 SSTORE PUSH1 0x1 DUP3 ADD SWAP2 POP PUSH1 0x20 DUP6 ADD SWAP5 POP PUSH1 0x20 DUP2 ADD SWAP1 POP PUSH3 0x3F5 JUMP JUMPDEST DUP7 DUP4 LT ISZERO PUSH3 0x43C JUMPI DUP5 DUP10 ADD MLOAD PUSH3 0x438 PUSH1 0x1F DUP10 AND DUP3 PUSH3 0x32C JUMP JUMPDEST DUP4 SSTORE POP JUMPDEST PUSH1 0x1 PUSH1 0x2 DUP9 MUL ADD DUP9 SSTORE POP POP POP JUMPDEST POP POP POP POP POP POP JUMP JUMPDEST PUSH1 0x80 MLOAD PUSH2 0x2186 PUSH3 0x489 PUSH1 0x0 CODECOPY PUSH1 0x0 DUP2 DUP2 PUSH2 0x233 ADD MSTORE DUP2 DUP2 PUSH2 0x2B0 ADD MSTORE DUP2 DUP2 PUSH2 0xD23 ADD MSTORE DUP2 DUP2 PUSH2 0xE60 ADD MSTORE PUSH2 0x112A ADD MSTORE PUSH2 0x2186 PUSH1 0x0 RETURN INVALID PUSH1 0x80 PUSH1 0x40 MSTORE PUSH1 0x4 CALLDATASIZE LT PUSH2 0x86 JUMPI PUSH1 0x0 CALLDATALOAD PUSH1 0xE0 SHR DUP1 PUSH4 0x8A44810D GT PUSH2 0x59 JUMPI DUP1 PUSH4 0x8A44810D EQ PUSH2 0x128 JUMPI DUP1 PUSH4 0xCEF55B9A EQ PUSH2 0x151 JUMPI DUP1 PUSH4 0xDE292789 EQ PUSH2 0x17A JUMPI DUP1 PUSH4 0xE65D6B49 EQ PUSH2 0x1A5 JUMPI DUP1 PUSH4 0xF71D96CB EQ PUSH2 0x1D0 JUMPI PUSH2 0x86 JUMP JUMPDEST DUP1 PUSH4 0x99A019D EQ PUSH2 0x8B JUMPI DUP1 PUSH4 0x12065FE0 EQ PUSH2 0xB6 JUMPI DUP1 PUSH4 0x53A04B05 EQ PUSH2 0xE1 JUMPI DUP1 PUSH4 0x6D763A6E EQ PUSH2 0xFD JUMPI JUMPDEST PUSH1 0x0 DUP1 REVERT JUMPDEST CALLVALUE DUP1 ISZERO PUSH2 0x97 JUMPI PUSH1 0x0 DUP1 REVERT JUMPDEST POP PUSH2 0xA0 PUSH2 0x20E JUMP JUMPDEST PUSH1 0x40 MLOAD PUSH2 0xAD SWAP2 SWAP1 PUSH2 0x1443 JUMP JUMPDEST PUSH1 0x40 MLOAD DUP1 SWAP2 SUB SWAP1 RETURN JUMPDEST CALLVALUE DUP1 ISZERO PUSH2 0xC2 JUMPI PUSH1 0x0 DUP1 REVERT JUMPDEST POP PUSH2 0xCB PUSH2 0x218 JUMP JUMPDEST PUSH1 0x40 MLOAD PUSH2 0xD8 SWAP2 SWAP1 PUSH2 0x1443 JUMP JUMPDEST PUSH1 0x40 MLOAD DUP1 SWAP2 SUB SWAP1 RETURN JUMPDEST PUSH2 0xFB PUSH1 0x4 DUP1 CALLDATASIZE SUB DUP2 ADD SWAP1 PUSH2 0xF6 SWAP2 SWAP1 PUSH2 0x1488 JUMP JUMPDEST PUSH2 0x2AE JUMP JUMPDEST STOP JUMPDEST CALLVALUE DUP1 ISZERO PUSH2 0x109 JUMPI PUSH1 0x0 DUP1 REVERT JUMPDEST POP PUSH2 0x112 PUSH2 0x9E7 JUMP JUMPDEST PUSH1 0x40 MLOAD PUSH2 0x11F SWAP2 SWAP1 PUSH2 0x15F3 JUMP JUMPDEST PUSH1 0x40 MLOAD DUP1 SWAP2 SUB SWAP1 RETURN JUMPDEST CALLVALUE DUP1 ISZERO PUSH2 0x134 JUMPI PUSH1 0x0 DUP1 REVERT JUMPDEST POP PUSH2 0x14F PUSH1 0x4 DUP1 CALLDATASIZE SUB DUP2 ADD SWAP1 PUSH2 0x14A SWAP2 SWAP1 PUSH2 0x164E JUMP JUMPDEST PUSH2 0xD21 JUMP JUMPDEST STOP JUMPDEST CALLVALUE DUP1 ISZERO PUSH2 0x15D JUMPI PUSH1 0x0 DUP1 REVERT JUMPDEST POP PUSH2 0x178 PUSH1 0x4 DUP1 CALLDATASIZE SUB DUP2 ADD SWAP1 PUSH2 0x173 SWAP2 SWAP1 PUSH2 0x16A7 JUMP JUMPDEST PUSH2 0xE5E JUMP JUMPDEST STOP JUMPDEST CALLVALUE DUP1 ISZERO PUSH2 0x186 JUMPI PUSH1 0x0 DUP1 REVERT JUMPDEST POP PUSH2 0x18F PUSH2 0xF87 JUMP JUMPDEST PUSH1 0x40 MLOAD PUSH2 0x19C SWAP2 SWAP1 PUSH2 0x1764 JUMP JUMPDEST PUSH1 0x40 MLOAD DUP1 SWAP2 SUB SWAP1 RETURN JUMPDEST CALLVALUE DUP1 ISZERO PUSH2 0x1B1 JUMPI PUSH1 0x0 DUP1 REVERT JUMPDEST POP PUSH2 0x1BA PUSH2 0x1019 JUMP JUMPDEST PUSH1 0x40 MLOAD PUSH2 0x1C7 SWAP2 SWAP1 PUSH2 0x1795 JUMP JUMPDEST PUSH1 0x40 MLOAD DUP1 SWAP2 SUB SWAP1 RETURN JUMPDEST CALLVALUE DUP1 ISZERO PUSH2 0x1DC JUMPI PUSH1 0x0 DUP1 REVERT JUMPDEST POP PUSH2 0x1F7 PUSH1 0x4 DUP1 CALLDATASIZE SUB DUP2 ADD SWAP1 PUSH2 0x1F2 SWAP2 SWAP1 PUSH2 0x16A7 JUMP JUMPDEST PUSH2 0x1030 JUMP JUMPDEST PUSH1 0x40 MLOAD PUSH2 0x205 SWAP3 SWAP2 SWAP1 PUSH2 0x17CE JUMP JUMPDEST PUSH1 0x40 MLOAD DUP1 SWAP2 SUB SWAP1 RETURN JUMPDEST PUSH1 0x0 PUSH1 0x2 SLOAD SWAP1 POP SWAP1 JUMP JUMPDEST PUSH1 0x0 ORIGIN PUSH20 0xFFFFFFFFFFFFFFFFFFFFFFFFFFFFFFFFFFFFFFFF AND PUSH32 0x0 PUSH20 0xFFFFFFFFFFFFFFFFFFFFFFFFFFFFFFFFFFFFFFFF AND EQ PUSH2 0x2A8 JUMPI PUSH1 0x40 MLOAD PUSH32 0x8C379A000000000000000000000000000000000000000000000000000000000 DUP2 MSTORE PUSH1 0x4 ADD PUSH2 0x29F SWAP1 PUSH2 0x1843 JUMP JUMPDEST PUSH1 0x40 MLOAD DUP1 SWAP2 SUB SWAP1 REVERT JUMPDEST SELFBALANCE SWAP1 POP SWAP1 JUMP JUMPDEST PUSH32 0x0 PUSH20 0xFFFFFFFFFFFFFFFFFFFFFFFFFFFFFFFFFFFFFFFF AND ORIGIN PUSH20 0xFFFFFFFFFFFFFFFFFFFFFFFFFFFFFFFFFFFFFFFF AND SUB PUSH2 0x33C JUMPI PUSH1 0x40 MLOAD PUSH32 0x8C379A000000000000000000000000000000000000000000000000000000000 DUP2 MSTORE PUSH1 0x4 ADD PUSH2 0x333 SWAP1 PUSH2 0x18AF JUMP JUMPDEST PUSH1 0x40 MLOAD DUP1 SWAP2 SUB SWAP1 REVERT JUMPDEST PUSH1 0x0 PUSH1 0x3 DUP2 GT ISZERO PUSH2 0x350 JUMPI PUSH2 0x34F PUSH2 0x18CF JUMP JUMPDEST JUMPDEST DUP2 PUSH1 0x3 DUP2 GT ISZERO PUSH2 0x363 JUMPI PUSH2 0x362 PUSH2 0x18CF JUMP JUMPDEST JUMPDEST SUB PUSH2 0x3A3 JUMPI PUSH1 0x40 MLOAD PUSH32 0x8C379A000000000000000000000000000000000000000000000000000000000 DUP2 MSTORE PUSH1 0x4 ADD PUSH2 0x39A SWAP1 PUSH2 0x194A JUMP JUMPDEST PUSH1 0x40 MLOAD DUP1 SWAP2 SUB SWAP1 REVERT JUMPDEST ORIGIN PUSH20 0xFFFFFFFFFFFFFFFFFFFFFFFFFFFFFFFFFFFFFFFF AND PUSH1 0x0 PUSH1 0x1 SWAP1 SLOAD SWAP1 PUSH2 0x100 EXP SWAP1 DIV PUSH20 0xFFFFFFFFFFFFFFFFFFFFFFFFFFFFFFFFFFFFFFFF AND PUSH20 0xFFFFFFFFFFFFFFFFFFFFFFFFFFFFFFFFFFFFFFFF AND SUB PUSH2 0x433 JUMPI PUSH1 0x40 MLOAD PUSH32 0x8C379A000000000000000000000000000000000000000000000000000000000 DUP2 MSTORE PUSH1 0x4 ADD PUSH2 0x42A SWAP1 PUSH2 0x19B6 JUMP JUMPDEST PUSH1 0x40 MLOAD DUP1 SWAP2 SUB SWAP1 REVERT JUMPDEST PUSH1 0x2 SLOAD CALLVALUE LT ISZERO PUSH2 0x478 JUMPI PUSH1 0x40 MLOAD PUSH32 0x8C379A000000000000000000000000000000000000000000000000000000000 DUP2 MSTORE PUSH1 0x4 ADD PUSH2 0x46F SWAP1 PUSH2 0x1A22 JUMP JUMPDEST PUSH1 0x40 MLOAD DUP1 SWAP2 SUB SWAP1 REVERT JUMPDEST PUSH1 0x0 PUSH1 0x3 DUP2 GT ISZERO PUSH2 0x48C JUMPI PUSH2 0x48B PUSH2 0x18CF JUMP JUMPDEST JUMPDEST PUSH1 0x0 DUP1 SLOAD SWAP1 PUSH2 0x100 EXP SWAP1 DIV PUSH1 0xFF AND PUSH1 0x3 DUP2 GT ISZERO PUSH2 0x4AC JUMPI PUSH2 0x4AB PUSH2 0x18CF JUMP JUMPDEST JUMPDEST SUB PUSH2 0x548 JUMPI ORIGIN PUSH1 0x0 PUSH1 0x1 PUSH2 0x100 EXP DUP2 SLOAD DUP2 PUSH20 0xFFFFFFFFFFFFFFFFFFFFFFFFFFFFFFFFFFFFFFFF MUL NOT AND SWAP1 DUP4 PUSH20 0xFFFFFFFFFFFFFFFFFFFFFFFFFFFFFFFFFFFFFFFF AND MUL OR SWAP1 SSTORE POP DUP1 PUSH1 0x0 DUP1 PUSH2 0x100 EXP DUP2 SLOAD DUP2 PUSH1 0xFF MUL NOT AND SWAP1 DUP4 PUSH1 0x3 DUP2 GT ISZERO PUSH2 0x516 JUMPI PUSH2 0x515 PUSH2 0x18CF JUMP JUMPDEST JUMPDEST MUL OR SWAP1 SSTORE POP PUSH1 0x40 MLOAD DUP1 PUSH1 0x60 ADD PUSH1 0x40 MSTORE DUP1 PUSH1 0x31 DUP2 MSTORE PUSH1 0x20 ADD PUSH2 0x20DD PUSH1 0x31 SWAP2 CODECOPY PUSH1 0x1 SWAP1 DUP2 PUSH2 0x542 SWAP2 SWAP1 PUSH2 0x1C7D JUMP JUMPDEST POP PUSH2 0x9E4 JUMP JUMPDEST PUSH1 0x1 PUSH1 0x3 DUP2 GT ISZERO PUSH2 0x55C JUMPI PUSH2 0x55B PUSH2 0x18CF JUMP JUMPDEST JUMPDEST PUSH1 0x0 DUP1 SLOAD SWAP1 PUSH2 0x100 EXP SWAP1 DIV PUSH1 0xFF AND PUSH1 0x3 DUP2 GT ISZERO PUSH2 0x57C JUMPI PUSH2 0x57B PUSH2 0x18CF JUMP JUMPDEST JUMPDEST EQ DUP1 ISZERO PUSH2 0x5AC JUMPI POP PUSH1 0x3 DUP1 DUP2 GT ISZERO PUSH2 0x597 JUMPI PUSH2 0x596 PUSH2 0x18CF JUMP JUMPDEST JUMPDEST DUP2 PUSH1 0x3 DUP2 GT ISZERO PUSH2 0x5AA JUMPI PUSH2 0x5A9 PUSH2 0x18CF JUMP JUMPDEST JUMPDEST EQ JUMPDEST ISZERO PUSH2 0x5FA JUMPI PUSH2 0x5F5 PUSH1 0x40 MLOAD DUP1 PUSH1 0x60 ADD PUSH1 0x40 MSTORE DUP1 PUSH1 0x23 DUP2 MSTORE PUSH1 0x20 ADD PUSH2 0x2097 PUSH1 0x23 SWAP2 CODECOPY PUSH1 0x0 PUSH1 0x1 SWAP1 SLOAD SWAP1 PUSH2 0x100 EXP SWAP1 DIV PUSH20 0xFFFFFFFFFFFFFFFFFFFFFFFFFFFFFFFFFFFFFFFF AND PUSH2 0x1090 JUMP JUMPDEST PUSH2 0x9E3 JUMP JUMPDEST PUSH1 0x2 PUSH1 0x3 DUP2 GT ISZERO PUSH2 0x60E JUMPI PUSH2 0x60D PUSH2 0x18CF JUMP JUMPDEST JUMPDEST PUSH1 0x0 DUP1 SLOAD SWAP1 PUSH2 0x100 EXP SWAP1 DIV PUSH1 0xFF AND PUSH1 0x3 DUP2 GT ISZERO PUSH2 0x62E JUMPI PUSH2 0x62D PUSH2 0x18CF JUMP JUMPDEST JUMPDEST EQ DUP1 ISZERO PUSH2 0x65F JUMPI POP PUSH1 0x1 PUSH1 0x3 DUP2 GT ISZERO PUSH2 0x64A JUMPI PUSH2 0x649 PUSH2 0x18CF JUMP JUMPDEST JUMPDEST DUP2 PUSH1 0x3 DUP2 GT ISZERO PUSH2 0x65D JUMPI PUSH2 0x65C PUSH2 0x18CF JUMP JUMPDEST JUMPDEST EQ JUMPDEST ISZERO PUSH2 0x6CA JUMPI PUSH2 0x6C5 PUSH1 0x40 MLOAD DUP1 PUSH1 0x40 ADD PUSH1 0x40 MSTORE DUP1 PUSH1 0x1F DUP2 MSTORE PUSH1 0x20 ADD PUSH32 0x506170657220777261707320726F636B2E20506C61796572203120776F6E2E00 DUP2 MSTORE POP PUSH1 0x0 PUSH1 0x1 SWAP1 SLOAD SWAP1 PUSH2 0x100 EXP SWAP1 DIV PUSH20 0xFFFFFFFFFFFFFFFFFFFFFFFFFFFFFFFFFFFFFFFF AND PUSH2 0x1090 JUMP JUMPDEST PUSH2 0x9E2 JUMP JUMPDEST PUSH1 0x3 DUP1 DUP2 GT ISZERO PUSH2 0x6DD JUMPI PUSH2 0x6DC PUSH2 0x18CF JUMP JUMPDEST JUMPDEST PUSH1 0x0 DUP1 SLOAD SWAP1 PUSH2 0x100 EXP SWAP1 DIV PUSH1 0xFF AND PUSH1 0x3 DUP2 GT ISZERO PUSH2 0x6FD JUMPI PUSH2 0x6FC PUSH2 0x18CF JUMP JUMPDEST JUMPDEST EQ DUP1 ISZERO PUSH2 0x72E JUMPI POP PUSH1 0x2 PUSH1 0x3 DUP2 GT ISZERO PUSH2 0x719 JUMPI PUSH2 0x718 PUSH2 0x18CF JUMP JUMPDEST JUMPDEST DUP2 PUSH1 0x3 DUP2 GT ISZERO PUSH2 0x72C JUMPI PUSH2 0x72B PUSH2 0x18CF JUMP JUMPDEST JUMPDEST EQ JUMPDEST ISZERO PUSH2 0x77C JUMPI PUSH2 0x777 PUSH1 0x40 MLOAD DUP1 PUSH1 0x60 ADD PUSH1 0x40 MSTORE DUP1 PUSH1 0x22 DUP2 MSTORE PUSH1 0x20 ADD PUSH2 0x210E PUSH1 0x22 SWAP2 CODECOPY PUSH1 0x0 PUSH1 0x1 SWAP1 SLOAD SWAP1 PUSH2 0x100 EXP SWAP1 DIV PUSH20 0xFFFFFFFFFFFFFFFFFFFFFFFFFFFFFFFFFFFFFFFF AND PUSH2 0x1090 JUMP JUMPDEST PUSH2 0x9E1 JUMP JUMPDEST PUSH1 0x3 DUP1 DUP2 GT ISZERO PUSH2 0x78F JUMPI PUSH2 0x78E PUSH2 0x18CF JUMP JUMPDEST JUMPDEST PUSH1 0x0 DUP1 SLOAD SWAP1 PUSH2 0x100 EXP SWAP1 DIV PUSH1 0xFF AND PUSH1 0x3 DUP2 GT ISZERO PUSH2 0x7AF JUMPI PUSH2 0x7AE PUSH2 0x18CF JUMP JUMPDEST JUMPDEST EQ DUP1 ISZERO PUSH2 0x7E0 JUMPI POP PUSH1 0x1 PUSH1 0x3 DUP2 GT ISZERO PUSH2 0x7CB JUMPI PUSH2 0x7CA PUSH2 0x18CF JUMP JUMPDEST JUMPDEST DUP2 PUSH1 0x3 DUP2 GT ISZERO PUSH2 0x7DE JUMPI PUSH2 0x7DD PUSH2 0x18CF JUMP JUMPDEST JUMPDEST EQ JUMPDEST ISZERO PUSH2 0x80C JUMPI PUSH2 0x807 PUSH1 0x40 MLOAD DUP1 PUSH1 0x60 ADD PUSH1 0x40 MSTORE DUP1 PUSH1 0x23 DUP2 MSTORE PUSH1 0x20 ADD PUSH2 0x20BA PUSH1 0x23 SWAP2 CODECOPY ORIGIN PUSH2 0x1090 JUMP JUMPDEST PUSH2 0x9E0 JUMP JUMPDEST PUSH1 0x1 PUSH1 0x3 DUP2 GT ISZERO PUSH2 0x820 JUMPI PUSH2 0x81F PUSH2 0x18CF JUMP JUMPDEST JUMPDEST PUSH1 0x0 DUP1 SLOAD SWAP1 PUSH2 0x100 EXP SWAP1 DIV PUSH1 0xFF AND PUSH1 0x3 DUP2 GT ISZERO PUSH2 0x840 JUMPI PUSH2 0x83F PUSH2 0x18CF JUMP JUMPDEST JUMPDEST EQ DUP1 ISZERO PUSH2 0x871 JUMPI POP PUSH1 0x2 PUSH1 0x3 DUP2 GT ISZERO PUSH2 0x85C JUMPI PUSH2 0x85B PUSH2 0x18CF JUMP JUMPDEST JUMPDEST DUP2 PUSH1 0x3 DUP2 GT ISZERO PUSH2 0x86F JUMPI PUSH2 0x86E PUSH2 0x18CF JUMP JUMPDEST JUMPDEST EQ JUMPDEST ISZERO PUSH2 0x8BA JUMPI PUSH2 0x8B5 PUSH1 0x40 MLOAD DUP1 PUSH1 0x40 ADD PUSH1 0x40 MSTORE DUP1 PUSH1 0x1F DUP2 MSTORE PUSH1 0x20 ADD PUSH32 0x506170657220777261707320726F636B2E20506C61796572203220776F6E2E00 DUP2 MSTORE POP ORIGIN PUSH2 0x1090 JUMP JUMPDEST PUSH2 0x9DF JUMP JUMPDEST PUSH1 0x2 PUSH1 0x3 DUP2 GT ISZERO PUSH2 0x8CE JUMPI PUSH2 0x8CD PUSH2 0x18CF JUMP JUMPDEST JUMPDEST PUSH1 0x0 DUP1 SLOAD SWAP1 PUSH2 0x100 EXP SWAP1 DIV PUSH1 0xFF AND PUSH1 0x3 DUP2 GT ISZERO PUSH2 0x8EE JUMPI PUSH2 0x8ED PUSH2 0x18CF JUMP JUMPDEST JUMPDEST EQ DUP1 ISZERO PUSH2 0x91E JUMPI POP PUSH1 0x3 DUP1 DUP2 GT ISZERO PUSH2 0x909 JUMPI PUSH2 0x908 PUSH2 0x18CF JUMP JUMPDEST JUMPDEST DUP2 PUSH1 0x3 DUP2 GT ISZERO PUSH2 0x91C JUMPI PUSH2 0x91B PUSH2 0x18CF JUMP JUMPDEST JUMPDEST EQ JUMPDEST ISZERO PUSH2 0x94A JUMPI PUSH2 0x945 PUSH1 0x40 MLOAD DUP1 PUSH1 0x60 ADD PUSH1 0x40 MSTORE DUP1 PUSH1 0x22 DUP2 MSTORE PUSH1 0x20 ADD PUSH2 0x2075 PUSH1 0x22 SWAP2 CODECOPY ORIGIN PUSH2 0x1090 JUMP JUMPDEST PUSH2 0x9DE JUMP JUMPDEST PUSH1 0x40 MLOAD DUP1 PUSH1 0x60 ADD PUSH1 0x40 MSTORE DUP1 PUSH1 0x21 DUP2 MSTORE PUSH1 0x20 ADD PUSH2 0x2130 PUSH1 0x21 SWAP2 CODECOPY PUSH1 0x1 SWAP1 DUP2 PUSH2 0x971 SWAP2 SWAP1 PUSH2 0x1C7D JUMP JUMPDEST POP PUSH1 0x0 DUP1 PUSH1 0x1 PUSH2 0x100 EXP DUP2 SLOAD DUP2 PUSH20 0xFFFFFFFFFFFFFFFFFFFFFFFFFFFFFFFFFFFFFFFF MUL NOT AND SWAP1 DUP4 PUSH20 0xFFFFFFFFFFFFFFFFFFFFFFFFFFFFFFFFFFFFFFFF AND MUL OR SWAP1 SSTORE POP PUSH1 0x0 DUP1 PUSH1 0x0 PUSH2 0x100 EXP DUP2 SLOAD DUP2 PUSH1 0xFF MUL NOT AND SWAP1 DUP4 PUSH1 0x3 DUP2 GT ISZERO PUSH2 0x9D8 JUMPI PUSH2 0x9D7 PUSH2 0x18CF JUMP JUMPDEST JUMPDEST MUL OR SWAP1 SSTORE POP JUMPDEST JUMPDEST JUMPDEST JUMPDEST JUMPDEST JUMPDEST JUMPDEST POP JUMP JUMPDEST PUSH1 0x60 PUSH1 0x2 PUSH1 0x4 DUP1 SLOAD SWAP1 POP LT ISZERO PUSH2 0xACE JUMPI PUSH1 0x4 DUP1 SLOAD DUP1 PUSH1 0x20 MUL PUSH1 0x20 ADD PUSH1 0x40 MLOAD SWAP1 DUP2 ADD PUSH1 0x40 MSTORE DUP1 SWAP3 SWAP2 SWAP1 DUP2 DUP2 MSTORE PUSH1 0x20 ADD PUSH1 0x0 SWAP1 JUMPDEST DUP3 DUP3 LT ISZERO PUSH2 0xAC3 JUMPI DUP4 DUP3 SWAP1 PUSH1 0x0 MSTORE PUSH1 0x20 PUSH1 0x0 KECCAK256 ADD PUSH1 0x40 MLOAD DUP1 PUSH1 0x40 ADD PUSH1 0x40 MSTORE SWAP1 DUP2 PUSH1 0x0 DUP3 ADD PUSH1 0x0 SWAP1 SLOAD SWAP1 PUSH2 0x100 EXP SWAP1 DIV PUSH20 0xFFFFFFFFFFFFFFFFFFFFFFFFFFFFFFFFFFFFFFFF AND PUSH20 0xFFFFFFFFFFFFFFFFFFFFFFFFFFFFFFFFFFFFFFFF AND PUSH20 0xFFFFFFFFFFFFFFFFFFFFFFFFFFFFFFFFFFFFFFFF AND DUP2 MSTORE PUSH1 0x20 ADD PUSH1 0x0 DUP3 ADD PUSH1 0x14 SWAP1 SLOAD SWAP1 PUSH2 0x100 EXP SWAP1 DIV PUSH4 0xFFFFFFFF AND PUSH4 0xFFFFFFFF AND PUSH4 0xFFFFFFFF AND DUP2 MSTORE POP POP DUP2 MSTORE PUSH1 0x20 ADD SWAP1 PUSH1 0x1 ADD SWAP1 PUSH2 0xA19 JUMP JUMPDEST POP POP POP POP SWAP1 POP PUSH2 0xD1E JUMP JUMPDEST PUSH1 0x0 PUSH1 0x4 DUP1 SLOAD SWAP1 POP PUSH8 0xFFFFFFFFFFFFFFFF DUP2 GT ISZERO PUSH2 0xAEF JUMPI PUSH2 0xAEE PUSH2 0x1A42 JUMP JUMPDEST JUMPDEST PUSH1 0x40 MLOAD SWAP1 DUP1 DUP3 MSTORE DUP1 PUSH1 0x20 MUL PUSH1 0x20 ADD DUP3 ADD PUSH1 0x40 MSTORE DUP1 ISZERO PUSH2 0xB28 JUMPI DUP2 PUSH1 0x20 ADD JUMPDEST PUSH2 0xB15 PUSH2 0x13F4 JUMP JUMPDEST DUP2 MSTORE PUSH1 0x20 ADD SWAP1 PUSH1 0x1 SWAP1 SUB SWAP1 DUP2 PUSH2 0xB0D JUMPI SWAP1 POP JUMPDEST POP SWAP1 POP PUSH1 0x0 JUMPDEST PUSH1 0x4 DUP1 SLOAD SWAP1 POP DUP2 LT ISZERO PUSH2 0xC0B JUMPI PUSH1 0x4 DUP2 DUP2 SLOAD DUP2 LT PUSH2 0xB4F JUMPI PUSH2 0xB4E PUSH2 0x1D4F JUMP JUMPDEST JUMPDEST SWAP1 PUSH1 0x0 MSTORE PUSH1 0x20 PUSH1 0x0 KECCAK256 ADD PUSH1 0x40 MLOAD DUP1 PUSH1 0x40 ADD PUSH1 0x40 MSTORE SWAP1 DUP2 PUSH1 0x0 DUP3 ADD PUSH1 0x0 SWAP1 SLOAD SWAP1 PUSH2 0x100 EXP SWAP1 DIV PUSH20 0xFFFFFFFFFFFFFFFFFFFFFFFFFFFFFFFFFFFFFFFF AND PUSH20 0xFFFFFFFFFFFFFFFFFFFFFFFFFFFFFFFFFFFFFFFF AND PUSH20 0xFFFFFFFFFFFFFFFFFFFFFFFFFFFFFFFFFFFFFFFF AND DUP2 MSTORE PUSH1 0x20 ADD PUSH1 0x0 DUP3 ADD PUSH1 0x14 SWAP1 SLOAD SWAP1 PUSH2 0x100 EXP SWAP1 DIV PUSH4 0xFFFFFFFF AND PUSH4 0xFFFFFFFF AND PUSH4 0xFFFFFFFF AND DUP2 MSTORE POP POP DUP3 DUP3 DUP2 MLOAD DUP2 LT PUSH2 0xBF3 JUMPI PUSH2 0xBF2 PUSH2 0x1D4F JUMP JUMPDEST JUMPDEST PUSH1 0x20 MUL PUSH1 0x20 ADD ADD DUP2 SWAP1 MSTORE POP DUP1 DUP1 PUSH1 0x1 ADD SWAP2 POP POP PUSH2 0xB2E JUMP JUMPDEST POP PUSH1 0x0 JUMPDEST PUSH1 0x1 DUP3 MLOAD PUSH2 0xC1D SWAP2 SWAP1 PUSH2 0x1DAD JUMP JUMPDEST DUP2 LT ISZERO PUSH2 0xD18 JUMPI PUSH1 0x0 PUSH1 0x1 SWAP1 POP JUMPDEST DUP3 MLOAD DUP2 LT ISZERO PUSH2 0xD0A JUMPI DUP3 DUP2 DUP2 MLOAD DUP2 LT PUSH2 0xC47 JUMPI PUSH2 0xC46 PUSH2 0x1D4F JUMP JUMPDEST JUMPDEST PUSH1 0x20 MUL PUSH1 0x20 ADD ADD MLOAD PUSH1 0x20 ADD MLOAD PUSH4 0xFFFFFFFF AND DUP4 DUP4 DUP2 MLOAD DUP2 LT PUSH2 0xC6C JUMPI PUSH2 0xC6B PUSH2 0x1D4F JUMP JUMPDEST JUMPDEST PUSH1 0x20 MUL PUSH1 0x20 ADD ADD MLOAD PUSH1 0x20 ADD MLOAD PUSH4 0xFFFFFFFF AND LT ISZERO PUSH2 0xCFD JUMPI PUSH1 0x0 DUP4 DUP4 DUP2 MLOAD DUP2 LT PUSH2 0xC99 JUMPI PUSH2 0xC98 PUSH2 0x1D4F JUMP JUMPDEST JUMPDEST PUSH1 0x20 MUL PUSH1 0x20 ADD ADD MLOAD SWAP1 POP DUP4 DUP3 DUP2 MLOAD DUP2 LT PUSH2 0xCB6 JUMPI PUSH2 0xCB5 PUSH2 0x1D4F JUMP JUMPDEST JUMPDEST PUSH1 0x20 MUL PUSH1 0x20 ADD ADD MLOAD DUP5 DUP5 DUP2 MLOAD DUP2 LT PUSH2 0xCD1 JUMPI PUSH2 0xCD0 PUSH2 0x1D4F JUMP JUMPDEST JUMPDEST PUSH1 0x20 MUL PUSH1 0x20 ADD ADD DUP2 SWAP1 MSTORE POP DUP1 DUP5 DUP4 DUP2 MLOAD DUP2 LT PUSH2 0xCF0 JUMPI PUSH2 0xCEF PUSH2 0x1D4F JUMP JUMPDEST JUMPDEST PUSH1 0x20 MUL PUSH1 0x20 ADD ADD DUP2 SWAP1 MSTORE POP POP JUMPDEST DUP1 DUP1 PUSH1 0x1 ADD SWAP2 POP POP PUSH2 0xC2B JUMP JUMPDEST POP DUP1 DUP1 PUSH1 0x1 ADD SWAP2 POP POP PUSH2 0xC0F JUMP JUMPDEST POP DUP1 SWAP2 POP POP JUMPDEST SWAP1 JUMP JUMPDEST PUSH32 0x0 PUSH20 0xFFFFFFFFFFFFFFFFFFFFFFFFFFFFFFFFFFFFFFFF AND ORIGIN PUSH20 0xFFFFFFFFFFFFFFFFFFFFFFFFFFFFFFFFFFFFFFFF AND EQ PUSH2 0xDAF JUMPI PUSH1 0x40 MLOAD PUSH32 0x8C379A000000000000000000000000000000000000000000000000000000000 DUP2 MSTORE PUSH1 0x4 ADD PUSH2 0xDA6 SWAP1 PUSH2 0x1E2D JUMP JUMPDEST PUSH1 0x40 MLOAD DUP1 SWAP2 SUB SWAP1 REVERT JUMPDEST PUSH1 0x0 PUSH20 0xFFFFFFFFFFFFFFFFFFFFFFFFFFFFFFFFFFFFFFFF AND PUSH1 0x0 PUSH1 0x1 SWAP1 SLOAD SWAP1 PUSH2 0x100 EXP SWAP1 DIV PUSH20 0xFFFFFFFFFFFFFFFFFFFFFFFFFFFFFFFFFFFFFFFF AND PUSH20 0xFFFFFFFFFFFFFFFFFFFFFFFFFFFFFFFFFFFFFFFF AND EQ PUSH2 0xE40 JUMPI PUSH1 0x40 MLOAD PUSH32 0x8C379A000000000000000000000000000000000000000000000000000000000 DUP2 MSTORE PUSH1 0x4 ADD PUSH2 0xE37 SWAP1 PUSH2 0x1EBF JUMP JUMPDEST PUSH1 0x40 MLOAD DUP1 SWAP2 SUB SWAP1 REVERT JUMPDEST DUP1 PUSH1 0x3 PUSH1 0x0 PUSH2 0x100 EXP DUP2 SLOAD DUP2 PUSH1 0xFF MUL NOT AND SWAP1 DUP4 PUSH1 0xFF AND MUL OR SWAP1 SSTORE POP POP JUMP JUMPDEST PUSH32 0x0 PUSH20 0xFFFFFFFFFFFFFFFFFFFFFFFFFFFFFFFFFFFFFFFF AND ORIGIN PUSH20 0xFFFFFFFFFFFFFFFFFFFFFFFFFFFFFFFFFFFFFFFF AND EQ PUSH2 0xEEC JUMPI PUSH1 0x40 MLOAD PUSH32 0x8C379A000000000000000000000000000000000000000000000000000000000 DUP2 MSTORE PUSH1 0x4 ADD PUSH2 0xEE3 SWAP1 PUSH2 0x1E2D JUMP JUMPDEST PUSH1 0x40 MLOAD DUP1 SWAP2 SUB SWAP1 REVERT JUMPDEST PUSH1 0x0 PUSH20 0xFFFFFFFFFFFFFFFFFFFFFFFFFFFFFFFFFFFFFFFF AND PUSH1 0x0 PUSH1 0x1 SWAP1 SLOAD SWAP1 PUSH2 0x100 EXP SWAP1 DIV PUSH20 0xFFFFFFFFFFFFFFFFFFFFFFFFFFFFFFFFFFFFFFFF AND PUSH20 0xFFFFFFFFFFFFFFFFFFFFFFFFFFFFFFFFFFFFFFFF AND EQ PUSH2 0xF7D JUMPI PUSH1 0x40 MLOAD PUSH32 0x8C379A000000000000000000000000000000000000000000000000000000000 DUP2 MSTORE PUSH1 0x4 ADD PUSH2 0xF74 SWAP1 PUSH2 0x1F51 JUMP JUMPDEST PUSH1 0x40 MLOAD DUP1 SWAP2 SUB SWAP1 REVERT JUMPDEST DUP1 PUSH1 0x2 DUP2 SWAP1 SSTORE POP POP JUMP JUMPDEST PUSH1 0x60 PUSH1 0x1 DUP1 SLOAD PUSH2 0xF96 SWAP1 PUSH2 0x1AA0 JUMP JUMPDEST DUP1 PUSH1 0x1F ADD PUSH1 0x20 DUP1 SWAP2 DIV MUL PUSH1 0x20 ADD PUSH1 0x40 MLOAD SWAP1 DUP2 ADD PUSH1 0x40 MSTORE DUP1 SWAP3 SWAP2 SWAP1 DUP2 DUP2 MSTORE PUSH1 0x20 ADD DUP3 DUP1 SLOAD PUSH2 0xFC2 SWAP1 PUSH2 0x1AA0 JUMP JUMPDEST DUP1 ISZERO PUSH2 0x100F JUMPI DUP1 PUSH1 0x1F LT PUSH2 0xFE4 JUMPI PUSH2 0x100 DUP1 DUP4 SLOAD DIV MUL DUP4 MSTORE SWAP2 PUSH1 0x20 ADD SWAP2 PUSH2 0x100F JUMP JUMPDEST DUP3 ADD SWAP2 SWAP1 PUSH1 0x0 MSTORE PUSH1 0x20 PUSH1 0x0 KECCAK256 SWAP1 JUMPDEST DUP2 SLOAD DUP2 MSTORE SWAP1 PUSH1 0x1 ADD SWAP1 PUSH1 0x20 ADD DUP1 DUP4 GT PUSH2 0xFF2 JUMPI DUP3 SWAP1 SUB PUSH1 0x1F AND DUP3 ADD SWAP2 JUMPDEST POP POP POP POP POP SWAP1 POP SWAP1 JUMP JUMPDEST PUSH1 0x0 PUSH1 0x3 PUSH1 0x0 SWAP1 SLOAD SWAP1 PUSH2 0x100 EXP SWAP1 DIV PUSH1 0xFF AND SWAP1 POP SWAP1 JUMP JUMPDEST PUSH1 0x4 DUP2 DUP2 SLOAD DUP2 LT PUSH2 0x1040 JUMPI PUSH1 0x0 DUP1 REVERT JUMPDEST SWAP1 PUSH1 0x0 MSTORE PUSH1 0x20 PUSH1 0x0 KECCAK256 ADD PUSH1 0x0 SWAP2 POP SWAP1 POP DUP1 PUSH1 0x0 ADD PUSH1 0x0 SWAP1 SLOAD SWAP1 PUSH2 0x100 EXP SWAP1 DIV PUSH20 0xFFFFFFFFFFFFFFFFFFFFFFFFFFFFFFFFFFFFFFFF AND SWAP1 DUP1 PUSH1 0x0 ADD PUSH1 0x14 SWAP1 SLOAD SWAP1 PUSH2 0x100 EXP SWAP1 DIV PUSH4 0xFFFFFFFF AND SWAP1 POP DUP3 JUMP JUMPDEST PUSH1 0x0 ADDRESS SWAP1 POP DUP2 PUSH20 0xFFFFFFFFFFFFFFFFFFFFFFFFFFFFFFFFFFFFFFFF AND PUSH2 0x8FC PUSH1 0x3 PUSH1 0x0 SWAP1 SLOAD SWAP1 PUSH2 0x100 EXP SWAP1 DIV PUSH1 0xFF AND PUSH1 0x64 PUSH2 0x10CB SWAP2 SWAP1 PUSH2 0x1F71 JUMP JUMPDEST PUSH1 0xFF AND PUSH1 0x64 DUP5 PUSH20 0xFFFFFFFFFFFFFFFFFFFFFFFFFFFFFFFFFFFFFFFF AND BALANCE PUSH2 0x10F2 SWAP2 SWAP1 PUSH2 0x1FD5 JUMP JUMPDEST PUSH2 0x10FC SWAP2 SWAP1 PUSH2 0x2006 JUMP JUMPDEST SWAP1 DUP2 ISZERO MUL SWAP1 PUSH1 0x40 MLOAD PUSH1 0x0 PUSH1 0x40 MLOAD DUP1 DUP4 SUB DUP2 DUP6 DUP9 DUP9 CALL SWAP4 POP POP POP POP ISZERO DUP1 ISZERO PUSH2 0x1127 JUMPI RETURNDATASIZE PUSH1 0x0 DUP1 RETURNDATACOPY RETURNDATASIZE PUSH1 0x0 REVERT JUMPDEST POP PUSH32 0x0 PUSH20 0xFFFFFFFFFFFFFFFFFFFFFFFFFFFFFFFFFFFFFFFF AND PUSH2 0x8FC DUP3 PUSH20 0xFFFFFFFFFFFFFFFFFFFFFFFFFFFFFFFFFFFFFFFF AND BALANCE SWAP1 DUP2 ISZERO MUL SWAP1 PUSH1 0x40 MLOAD PUSH1 0x0 PUSH1 0x40 MLOAD DUP1 DUP4 SUB DUP2 DUP6 DUP9 DUP9 CALL SWAP4 POP POP POP POP ISZERO DUP1 ISZERO PUSH2 0x11A5 JUMPI RETURNDATASIZE PUSH1 0x0 DUP1 RETURNDATACOPY RETURNDATASIZE PUSH1 0x0 REVERT JUMPDEST POP PUSH2 0x11AF DUP3 PUSH2 0x122F JUMP JUMPDEST DUP3 PUSH1 0x1 SWAP1 DUP2 PUSH2 0x11BE SWAP2 SWAP1 PUSH2 0x1C7D JUMP JUMPDEST POP PUSH1 0x0 DUP1 PUSH1 0x1 PUSH2 0x100 EXP DUP2 SLOAD DUP2 PUSH20 0xFFFFFFFFFFFFFFFFFFFFFFFFFFFFFFFFFFFFFFFF MUL NOT AND SWAP1 DUP4 PUSH20 0xFFFFFFFFFFFFFFFFFFFFFFFFFFFFFFFFFFFFFFFF AND MUL OR SWAP1 SSTORE POP PUSH1 0x0 DUP1 PUSH1 0x0 PUSH2 0x100 EXP DUP2 SLOAD DUP2 PUSH1 0xFF MUL NOT AND SWAP1 DUP4 PUSH1 0x3 DUP2 GT ISZERO PUSH2 0x1225 JUMPI PUSH2 0x1224 PUSH2 0x18CF JUMP JUMPDEST JUMPDEST MUL OR SWAP1 SSTORE POP POP POP POP JUMP JUMPDEST PUSH1 0x0 JUMPDEST PUSH1 0x4 DUP1 SLOAD SWAP1 POP DUP2 LT ISZERO PUSH2 0x1326 JUMPI DUP2 PUSH20 0xFFFFFFFFFFFFFFFFFFFFFFFFFFFFFFFFFFFFFFFF AND PUSH1 0x4 DUP3 DUP2 SLOAD DUP2 LT PUSH2 0x126A JUMPI PUSH2 0x1269 PUSH2 0x1D4F JUMP JUMPDEST JUMPDEST SWAP1 PUSH1 0x0 MSTORE PUSH1 0x20 PUSH1 0x0 KECCAK256 ADD PUSH1 0x0 ADD PUSH1 0x0 SWAP1 SLOAD SWAP1 PUSH2 0x100 EXP SWAP1 DIV PUSH20 0xFFFFFFFFFFFFFFFFFFFFFFFFFFFFFFFFFFFFFFFF AND PUSH20 0xFFFFFFFFFFFFFFFFFFFFFFFFFFFFFFFFFFFFFFFF AND SUB PUSH2 0x1319 JUMPI PUSH1 0x4 DUP2 DUP2 SLOAD DUP2 LT PUSH2 0x12C7 JUMPI PUSH2 0x12C6 PUSH2 0x1D4F JUMP JUMPDEST JUMPDEST SWAP1 PUSH1 0x0 MSTORE PUSH1 0x20 PUSH1 0x0 KECCAK256 ADD PUSH1 0x0 ADD PUSH1 0x14 DUP2 DUP2 SWAP1 SLOAD SWAP1 PUSH2 0x100 EXP SWAP1 DIV PUSH4 0xFFFFFFFF AND DUP1 SWAP3 SWAP2 SWAP1 PUSH2 0x12F4 SWAP1 PUSH2 0x2048 JUMP JUMPDEST SWAP2 SWAP1 PUSH2 0x100 EXP DUP2 SLOAD DUP2 PUSH4 0xFFFFFFFF MUL NOT AND SWAP1 DUP4 PUSH4 0xFFFFFFFF AND MUL OR SWAP1 SSTORE POP POP POP PUSH2 0x13F1 JUMP JUMPDEST DUP1 DUP1 PUSH1 0x1 ADD SWAP2 POP POP PUSH2 0x1232 JUMP JUMPDEST POP PUSH1 0x4 PUSH1 0x40 MLOAD DUP1 PUSH1 0x40 ADD PUSH1 0x40 MSTORE DUP1 DUP4 PUSH20 0xFFFFFFFFFFFFFFFFFFFFFFFFFFFFFFFFFFFFFFFF AND DUP2 MSTORE PUSH1 0x20 ADD PUSH1 0x1 PUSH4 0xFFFFFFFF AND DUP2 MSTORE POP SWAP1 DUP1 PUSH1 0x1 DUP2 SLOAD ADD DUP1 DUP3 SSTORE DUP1 SWAP2 POP POP PUSH1 0x1 SWAP1 SUB SWAP1 PUSH1 0x0 MSTORE PUSH1 0x20 PUSH1 0x0 KECCAK256 ADD PUSH1 0x0 SWAP1 SWAP2 SWAP1 SWAP2 SWAP1 SWAP2 POP PUSH1 0x0 DUP3 ADD MLOAD DUP2 PUSH1 0x0 ADD PUSH1 0x0 PUSH2 0x100 EXP DUP2 SLOAD DUP2 PUSH20 0xFFFFFFFFFFFFFFFFFFFFFFFFFFFFFFFFFFFFFFFF MUL NOT AND SWAP1 DUP4 PUSH20 0xFFFFFFFFFFFFFFFFFFFFFFFFFFFFFFFFFFFFFFFF AND MUL OR SWAP1 SSTORE POP PUSH1 0x20 DUP3 ADD MLOAD DUP2 PUSH1 0x0 ADD PUSH1 0x14 PUSH2 0x100 EXP DUP2 SLOAD DUP2 PUSH4 0xFFFFFFFF MUL NOT AND SWAP1 DUP4 PUSH4 0xFFFFFFFF AND MUL OR SWAP1 SSTORE POP POP POP JUMPDEST POP JUMP JUMPDEST PUSH1 0x40 MLOAD DUP1 PUSH1 0x40 ADD PUSH1 0x40 MSTORE DUP1 PUSH1 0x0 PUSH20 0xFFFFFFFFFFFFFFFFFFFFFFFFFFFFFFFFFFFFFFFF AND DUP2 MSTORE PUSH1 0x20 ADD PUSH1 0x0 PUSH4 0xFFFFFFFF AND DUP2 MSTORE POP SWAP1 JUMP JUMPDEST PUSH1 0x0 DUP2 SWAP1 POP SWAP2 SWAP1 POP JUMP JUMPDEST PUSH2 0x143D DUP2 PUSH2 0x142A JUMP JUMPDEST DUP3 MSTORE POP POP JUMP JUMPDEST PUSH1 0x0 PUSH1 0x20 DUP3 ADD SWAP1 POP PUSH2 0x1458 PUSH1 0x0 DUP4 ADD DUP5 PUSH2 0x1434 JUMP JUMPDEST SWAP3 SWAP2 POP POP JUMP JUMPDEST PUSH1 0x0 DUP1 REVERT JUMPDEST PUSH1 0x4 DUP2 LT PUSH2 0x1470 JUMPI PUSH1 0x0 DUP1 REVERT JUMPDEST POP JUMP JUMPDEST PUSH1 0x0 DUP2 CALLDATALOAD SWAP1 POP PUSH2 0x1482 DUP2 PUSH2 0x1463 JUMP JUMPDEST SWAP3 SWAP2 POP POP JUMP JUMPDEST PUSH1 0x0 PUSH1 0x20 DUP3 DUP5 SUB SLT ISZERO PUSH2 0x149E JUMPI PUSH2 0x149D PUSH2 0x145E JUMP JUMPDEST JUMPDEST PUSH1 0x0 PUSH2 0x14AC DUP5 DUP3 DUP6 ADD PUSH2 0x1473 JUMP JUMPDEST SWAP2 POP POP SWAP3 SWAP2 POP POP JUMP JUMPDEST PUSH1 0x0 DUP2 MLOAD SWAP1 POP SWAP2 SWAP1 POP JUMP JUMPDEST PUSH1 0x0 DUP3 DUP3 MSTORE PUSH1 0x20 DUP3 ADD SWAP1 POP SWAP3 SWAP2 POP POP JUMP JUMPDEST PUSH1 0x0 DUP2 SWAP1 POP PUSH1 0x20 DUP3 ADD SWAP1 POP SWAP2 SWAP1 POP JUMP JUMPDEST PUSH1 0x0 PUSH20 0xFFFFFFFFFFFFFFFFFFFFFFFFFFFFFFFFFFFFFFFF DUP3 AND SWAP1 POP SWAP2 SWAP1 POP JUMP JUMPDEST PUSH1 0x0 PUSH2 0x150C DUP3 PUSH2 0x14E1 JUMP JUMPDEST SWAP1 POP SWAP2 SWAP1 POP JUMP JUMPDEST PUSH2 0x151C DUP2 PUSH2 0x1501 JUMP JUMPDEST DUP3 MSTORE POP POP JUMP JUMPDEST PUSH1 0x0 PUSH4 0xFFFFFFFF DUP3 AND SWAP1 POP SWAP2 SWAP1 POP JUMP JUMPDEST PUSH2 0x153B DUP2 PUSH2 0x1522 JUMP JUMPDEST DUP3 MSTORE POP POP JUMP JUMPDEST PUSH1 0x40 DUP3 ADD PUSH1 0x0 DUP3 ADD MLOAD PUSH2 0x1557 PUSH1 0x0 DUP6 ADD DUP3 PUSH2 0x1513 JUMP JUMPDEST POP PUSH1 0x20 DUP3 ADD MLOAD PUSH2 0x156A PUSH1 0x20 DUP6 ADD DUP3 PUSH2 0x1532 JUMP JUMPDEST POP POP POP POP JUMP JUMPDEST PUSH1 0x0 PUSH2 0x157C DUP4 DUP4 PUSH2 0x1541 JUMP JUMPDEST PUSH1 0x40 DUP4 ADD SWAP1 POP SWAP3 SWAP2 POP POP JUMP JUMPDEST PUSH1 0x0 PUSH1 0x20 DUP3 ADD SWAP1 POP SWAP2 SWAP1 POP JUMP JUMPDEST PUSH1 0x0 PUSH2 0x15A0 DUP3 PUSH2 0x14B5 JUMP JUMPDEST PUSH2 0x15AA DUP2 DUP6 PUSH2 0x14C0 JUMP JUMPDEST SWAP4 POP PUSH2 0x15B5 DUP4 PUSH2 0x14D1 JUMP JUMPDEST DUP1 PUSH1 0x0 JUMPDEST DUP4 DUP2 LT ISZERO PUSH2 0x15E6 JUMPI DUP2 MLOAD PUSH2 0x15CD DUP9 DUP3 PUSH2 0x1570 JUMP JUMPDEST SWAP8 POP PUSH2 0x15D8 DUP4 PUSH2 0x1588 JUMP JUMPDEST SWAP3 POP POP PUSH1 0x1 DUP2 ADD SWAP1 POP PUSH2 0x15B9 JUMP JUMPDEST POP DUP6 SWAP4 POP POP POP POP SWAP3 SWAP2 POP POP JUMP JUMPDEST PUSH1 0x0 PUSH1 0x20 DUP3 ADD SWAP1 POP DUP2 DUP2 SUB PUSH1 0x0 DUP4 ADD MSTORE PUSH2 0x160D DUP2 DUP5 PUSH2 0x1595 JUMP JUMPDEST SWAP1 POP SWAP3 SWAP2 POP POP JUMP JUMPDEST PUSH1 0x0 PUSH1 0xFF DUP3 AND SWAP1 POP SWAP2 SWAP1 POP JUMP JUMPDEST PUSH2 0x162B DUP2 PUSH2 0x1615 JUMP JUMPDEST DUP2 EQ PUSH2 0x1636 JUMPI PUSH1 0x0 DUP1 REVERT JUMPDEST POP JUMP JUMPDEST PUSH1 0x0 DUP2 CALLDATALOAD SWAP1 POP PUSH2 0x1648 DUP2 PUSH2 0x1622 JUMP JUMPDEST SWAP3 SWAP2 POP POP JUMP JUMPDEST PUSH1 0x0 PUSH1 0x20 DUP3 DUP5 SUB SLT ISZERO PUSH2 0x1664 JUMPI PUSH2 0x1663 PUSH2 0x145E JUMP JUMPDEST JUMPDEST PUSH1 0x0 PUSH2 0x1672 DUP5 DUP3 DUP6 ADD PUSH2 0x1639 JUMP JUMPDEST SWAP2 POP POP SWAP3 SWAP2 POP POP JUMP JUMPDEST PUSH2 0x1684 DUP2 PUSH2 0x142A JUMP JUMPDEST DUP2 EQ PUSH2 0x168F JUMPI PUSH1 0x0 DUP1 REVERT JUMPDEST POP JUMP JUMPDEST PUSH1 0x0 DUP2 CALLDATALOAD SWAP1 POP PUSH2 0x16A1 DUP2 PUSH2 0x167B JUMP JUMPDEST SWAP3 SWAP2 POP POP JUMP JUMPDEST PUSH1 0x0 PUSH1 0x20 DUP3 DUP5 SUB SLT ISZERO PUSH2 0x16BD JUMPI PUSH2 0x16BC PUSH2 0x145E JUMP JUMPDEST JUMPDEST PUSH1 0x0 PUSH2 0x16CB DUP5 DUP3 DUP6 ADD PUSH2 0x1692 JUMP JUMPDEST SWAP2 POP POP SWAP3 SWAP2 POP POP JUMP JUMPDEST PUSH1 0x0 DUP2 MLOAD SWAP1 POP SWAP2 SWAP1 POP JUMP JUMPDEST PUSH1 0x0 DUP3 DUP3 MSTORE PUSH1 0x20 DUP3 ADD SWAP1 POP SWAP3 SWAP2 POP POP JUMP JUMPDEST PUSH1 0x0 JUMPDEST DUP4 DUP2 LT ISZERO PUSH2 0x170E JUMPI DUP1 DUP3 ADD MLOAD DUP2 DUP5 ADD MSTORE PUSH1 0x20 DUP2 ADD SWAP1 POP PUSH2 0x16F3 JUMP JUMPDEST PUSH1 0x0 DUP5 DUP5 ADD MSTORE POP POP POP POP JUMP JUMPDEST PUSH1 0x0 PUSH1 0x1F NOT PUSH1 0x1F DUP4 ADD AND SWAP1 POP SWAP2 SWAP1 POP JUMP JUMPDEST PUSH1 0x0 PUSH2 0x1736 DUP3 PUSH2 0x16D4 JUMP JUMPDEST PUSH2 0x1740 DUP2 DUP6 PUSH2 0x16DF JUMP JUMPDEST SWAP4 POP PUSH2 0x1750 DUP2 DUP6 PUSH1 0x20 DUP7 ADD PUSH2 0x16F0 JUMP JUMPDEST PUSH2 0x1759 DUP2 PUSH2 0x171A JUMP JUMPDEST DUP5 ADD SWAP2 POP POP SWAP3 SWAP2 POP POP JUMP JUMPDEST PUSH1 0x0 PUSH1 0x20 DUP3 ADD SWAP1 POP DUP2 DUP2 SUB PUSH1 0x0 DUP4 ADD MSTORE PUSH2 0x177E DUP2 DUP5 PUSH2 0x172B JUMP JUMPDEST SWAP1 POP SWAP3 SWAP2 POP POP JUMP JUMPDEST PUSH2 0x178F DUP2 PUSH2 0x1615 JUMP JUMPDEST DUP3 MSTORE POP POP JUMP JUMPDEST PUSH1 0x0 PUSH1 0x20 DUP3 ADD SWAP1 POP PUSH2 0x17AA PUSH1 0x0 DUP4 ADD DUP5 PUSH2 0x1786 JUMP JUMPDEST SWAP3 SWAP2 POP POP JUMP JUMPDEST PUSH2 0x17B9 DUP2 PUSH2 0x1501 JUMP JUMPDEST DUP3 MSTORE POP POP JUMP JUMPDEST PUSH2 0x17C8 DUP2 PUSH2 0x1522 JUMP JUMPDEST DUP3 MSTORE POP POP JUMP JUMPDEST PUSH1 0x0 PUSH1 0x40 DUP3 ADD SWAP1 POP PUSH2 0x17E3 PUSH1 0x0 DUP4 ADD DUP6 PUSH2 0x17B0 JUMP JUMPDEST PUSH2 0x17F0 PUSH1 0x20 DUP4 ADD DUP5 PUSH2 0x17BF JUMP JUMPDEST SWAP4 SWAP3 POP POP POP JUMP JUMPDEST PUSH32 0x596F7520646F206E6F7420686176652074686973207065726D697373696F6E00 PUSH1 0x0 DUP3 ADD MSTORE POP JUMP JUMPDEST PUSH1 0x0 PUSH2 0x182D PUSH1 0x1F DUP4 PUSH2 0x16DF JUMP JUMPDEST SWAP2 POP PUSH2 0x1838 DUP3 PUSH2 0x17F7 JUMP JUMPDEST PUSH1 0x20 DUP3 ADD SWAP1 POP SWAP2 SWAP1 POP JUMP JUMPDEST PUSH1 0x0 PUSH1 0x20 DUP3 ADD SWAP1 POP DUP2 DUP2 SUB PUSH1 0x0 DUP4 ADD MSTORE PUSH2 0x185C DUP2 PUSH2 0x1820 JUMP JUMPDEST SWAP1 POP SWAP2 SWAP1 POP JUMP JUMPDEST PUSH32 0x546865206F776E65722063616E6E6F7420706C61790000000000000000000000 PUSH1 0x0 DUP3 ADD MSTORE POP JUMP JUMPDEST PUSH1 0x0 PUSH2 0x1899 PUSH1 0x15 DUP4 PUSH2 0x16DF JUMP JUMPDEST SWAP2 POP PUSH2 0x18A4 DUP3 PUSH2 0x1863 JUMP JUMPDEST PUSH1 0x20 DUP3 ADD SWAP1 POP SWAP2 SWAP1 POP JUMP JUMPDEST PUSH1 0x0 PUSH1 0x20 DUP3 ADD SWAP1 POP DUP2 DUP2 SUB PUSH1 0x0 DUP4 ADD MSTORE PUSH2 0x18C8 DUP2 PUSH2 0x188C JUMP JUMPDEST SWAP1 POP SWAP2 SWAP1 POP JUMP JUMPDEST PUSH32 0x4E487B7100000000000000000000000000000000000000000000000000000000 PUSH1 0x0 MSTORE PUSH1 0x21 PUSH1 0x4 MSTORE PUSH1 0x24 PUSH1 0x0 REVERT JUMPDEST PUSH32 0x496E76616C69642063686F696365000000000000000000000000000000000000 PUSH1 0x0 DUP3 ADD MSTORE POP JUMP JUMPDEST PUSH1 0x0 PUSH2 0x1934 PUSH1 0xE DUP4 PUSH2 0x16DF JUMP JUMPDEST SWAP2 POP PUSH2 0x193F DUP3 PUSH2 0x18FE JUMP JUMPDEST PUSH1 0x20 DUP3 ADD SWAP1 POP SWAP2 SWAP1 POP JUMP JUMPDEST PUSH1 0x0 PUSH1 0x20 DUP3 ADD SWAP1 POP DUP2 DUP2 SUB PUSH1 0x0 DUP4 ADD MSTORE PUSH2 0x1963 DUP2 PUSH2 0x1927 JUMP JUMPDEST SWAP1 POP SWAP2 SWAP1 POP JUMP JUMPDEST PUSH32 0x576169742074686520616E6F7468657220706C61796572000000000000000000 PUSH1 0x0 DUP3 ADD MSTORE POP JUMP JUMPDEST PUSH1 0x0 PUSH2 0x19A0 PUSH1 0x17 DUP4 PUSH2 0x16DF JUMP JUMPDEST SWAP2 POP PUSH2 0x19AB DUP3 PUSH2 0x196A JUMP JUMPDEST PUSH1 0x20 DUP3 ADD SWAP1 POP SWAP2 SWAP1 POP JUMP JUMPDEST PUSH1 0x0 PUSH1 0x20 DUP3 ADD SWAP1 POP DUP2 DUP2 SUB PUSH1 0x0 DUP4 ADD MSTORE PUSH2 0x19CF DUP2 PUSH2 0x1993 JUMP JUMPDEST SWAP1 POP SWAP2 SWAP1 POP JUMP JUMPDEST PUSH32 0x496E76616C696420626964000000000000000000000000000000000000000000 PUSH1 0x0 DUP3 ADD MSTORE POP JUMP JUMPDEST PUSH1 0x0 PUSH2 0x1A0C PUSH1 0xB DUP4 PUSH2 0x16DF JUMP JUMPDEST SWAP2 POP PUSH2 0x1A17 DUP3 PUSH2 0x19D6 JUMP JUMPDEST PUSH1 0x20 DUP3 ADD SWAP1 POP SWAP2 SWAP1 POP JUMP JUMPDEST PUSH1 0x0 PUSH1 0x20 DUP3 ADD SWAP1 POP DUP2 DUP2 SUB PUSH1 0x0 DUP4 ADD MSTORE PUSH2 0x1A3B DUP2 PUSH2 0x19FF JUMP JUMPDEST SWAP1 POP SWAP2 SWAP1 POP JUMP JUMPDEST PUSH32 0x4E487B7100000000000000000000000000000000000000000000000000000000 PUSH1 0x0 MSTORE PUSH1 0x41 PUSH1 0x4 MSTORE PUSH1 0x24 PUSH1 0x0 REVERT JUMPDEST PUSH32 0x4E487B7100000000000000000000000000000000000000000000000000000000 PUSH1 0x0 MSTORE PUSH1 0x22 PUSH1 0x4 MSTORE PUSH1 0x24 PUSH1 0x0 REVERT JUMPDEST PUSH1 0x0 PUSH1 0x2 DUP3 DIV SWAP1 POP PUSH1 0x1 DUP3 AND DUP1 PUSH2 0x1AB8 JUMPI PUSH1 0x7F DUP3 AND SWAP2 POP JUMPDEST PUSH1 0x20 DUP3 LT DUP2 SUB PUSH2 0x1ACB JUMPI PUSH2 0x1ACA PUSH2 0x1A71 JUMP JUMPDEST JUMPDEST POP SWAP2 SWAP1 POP JUMP JUMPDEST PUSH1 0x0 DUP2 SWAP1 POP DUP2 PUSH1 0x0 MSTORE PUSH1 0x20 PUSH1 0x0 KECCAK256 SWAP1 POP SWAP2 SWAP1 POP JUMP JUMPDEST PUSH1 0x0 PUSH1 0x20 PUSH1 0x1F DUP4 ADD DIV SWAP1 POP SWAP2 SWAP1 POP JUMP JUMPDEST PUSH1 0x0 DUP3 DUP3 SHL SWAP1 POP SWAP3 SWAP2 POP POP JUMP JUMPDEST PUSH1 0x0 PUSH1 0x8 DUP4 MUL PUSH2 0x1B33 PUSH32 0xFFFFFFFFFFFFFFFFFFFFFFFFFFFFFFFFFFFFFFFFFFFFFFFFFFFFFFFFFFFFFFFF DUP3 PUSH2 0x1AF6 JUMP JUMPDEST PUSH2 0x1B3D DUP7 DUP4 PUSH2 0x1AF6 JUMP JUMPDEST SWAP6 POP DUP1 NOT DUP5 AND SWAP4 POP DUP1 DUP7 AND DUP5 OR SWAP3 POP POP POP SWAP4 SWAP3 POP POP POP JUMP JUMPDEST PUSH1 0x0 DUP2 SWAP1 POP SWAP2 SWAP1 POP JUMP JUMPDEST PUSH1 0x0 PUSH2 0x1B7A PUSH2 0x1B75 PUSH2 0x1B70 DUP5 PUSH2 0x142A JUMP JUMPDEST PUSH2 0x1B55 JUMP JUMPDEST PUSH2 0x142A JUMP JUMPDEST SWAP1 POP SWAP2 SWAP1 POP JUMP JUMPDEST PUSH1 0x0 DUP2 SWAP1 POP SWAP2 SWAP1 POP JUMP JUMPDEST PUSH2 0x1B94 DUP4 PUSH2 0x1B5F JUMP JUMPDEST PUSH2 0x1BA8 PUSH2 0x1BA0 DUP3 PUSH2 0x1B81 JUMP JUMPDEST DUP5 DUP5 SLOAD PUSH2 0x1B03 JUMP JUMPDEST DUP3 SSTORE POP POP POP POP JUMP JUMPDEST PUSH1 0x0 SWAP1 JUMP JUMPDEST PUSH2 0x1BBD PUSH2 0x1BB0 JUMP JUMPDEST PUSH2 0x1BC8 DUP2 DUP5 DUP5 PUSH2 0x1B8B JUMP JUMPDEST POP POP POP JUMP JUMPDEST JUMPDEST DUP2 DUP2 LT ISZERO PUSH2 0x1BEC JUMPI PUSH2 0x1BE1 PUSH1 0x0 DUP3 PUSH2 0x1BB5 JUMP JUMPDEST PUSH1 0x1 DUP2 ADD SWAP1 POP PUSH2 0x1BCE JUMP JUMPDEST POP POP JUMP JUMPDEST PUSH1 0x1F DUP3 GT ISZERO PUSH2 0x1C31 JUMPI PUSH2 0x1C02 DUP2 PUSH2 0x1AD1 JUMP JUMPDEST PUSH2 0x1C0B DUP5 PUSH2 0x1AE6 JUMP JUMPDEST DUP2 ADD PUSH1 0x20 DUP6 LT ISZERO PUSH2 0x1C1A JUMPI DUP2 SWAP1 POP JUMPDEST PUSH2 0x1C2E PUSH2 0x1C26 DUP6 PUSH2 0x1AE6 JUMP JUMPDEST DUP4 ADD DUP3 PUSH2 0x1BCD JUMP JUMPDEST POP POP JUMPDEST POP POP POP JUMP JUMPDEST PUSH1 0x0 DUP3 DUP3 SHR SWAP1 POP SWAP3 SWAP2 POP POP JUMP JUMPDEST PUSH1 0x0 PUSH2 0x1C54 PUSH1 0x0 NOT DUP5 PUSH1 0x8 MUL PUSH2 0x1C36 JUMP JUMPDEST NOT DUP1 DUP4 AND SWAP2 POP POP SWAP3 SWAP2 POP POP JUMP JUMPDEST PUSH1 0x0 PUSH2 0x1C6D DUP4 DUP4 PUSH2 0x1C43 JUMP JUMPDEST SWAP2 POP DUP3 PUSH1 0x2 MUL DUP3 OR SWAP1 POP SWAP3 SWAP2 POP POP JUMP JUMPDEST PUSH2 0x1C86 DUP3 PUSH2 0x16D4 JUMP JUMPDEST PUSH8 0xFFFFFFFFFFFFFFFF DUP2 GT ISZERO PUSH2 0x1C9F JUMPI PUSH2 0x1C9E PUSH2 0x1A42 JUMP JUMPDEST JUMPDEST PUSH2 0x1CA9 DUP3 SLOAD PUSH2 0x1AA0 JUMP JUMPDEST PUSH2 0x1CB4 DUP3 DUP3 DUP6 PUSH2 0x1BF0 JUMP JUMPDEST PUSH1 0x0 PUSH1 0x20 SWAP1 POP PUSH1 0x1F DUP4 GT PUSH1 0x1 DUP2 EQ PUSH2 0x1CE7 JUMPI PUSH1 0x0 DUP5 ISZERO PUSH2 0x1CD5 JUMPI DUP3 DUP8 ADD MLOAD SWAP1 POP JUMPDEST PUSH2 0x1CDF DUP6 DUP3 PUSH2 0x1C61 JUMP JUMPDEST DUP7 SSTORE POP PUSH2 0x1D47 JUMP JUMPDEST PUSH1 0x1F NOT DUP5 AND PUSH2 0x1CF5 DUP7 PUSH2 0x1AD1 JUMP JUMPDEST PUSH1 0x0 JUMPDEST DUP3 DUP2 LT ISZERO PUSH2 0x1D1D JUMPI DUP5 DUP10 ADD MLOAD DUP3 SSTORE PUSH1 0x1 DUP3 ADD SWAP2 POP PUSH1 0x20 DUP6 ADD SWAP5 POP PUSH1 0x20 DUP2 ADD SWAP1 POP PUSH2 0x1CF8 JUMP JUMPDEST DUP7 DUP4 LT ISZERO PUSH2 0x1D3A JUMPI DUP5 DUP10 ADD MLOAD PUSH2 0x1D36 PUSH1 0x1F DUP10 AND DUP3 PUSH2 0x1C43 JUMP JUMPDEST DUP4 SSTORE POP JUMPDEST PUSH1 0x1 PUSH1 0x2 DUP9 MUL ADD DUP9 SSTORE POP POP POP JUMPDEST POP POP POP POP POP POP JUMP JUMPDEST PUSH32 0x4E487B7100000000000000000000000000000000000000000000000000000000 PUSH1 0x0 MSTORE PUSH1 0x32 PUSH1 0x4 MSTORE PUSH1 0x24 PUSH1 0x0 REVERT JUMPDEST PUSH32 0x4E487B7100000000000000000000000000000000000000000000000000000000 PUSH1 0x0 MSTORE PUSH1 0x11 PUSH1 0x4 MSTORE PUSH1 0x24 PUSH1 0x0 REVERT JUMPDEST PUSH1 0x0 PUSH2 0x1DB8 DUP3 PUSH2 0x142A JUMP JUMPDEST SWAP2 POP PUSH2 0x1DC3 DUP4 PUSH2 0x142A JUMP JUMPDEST SWAP3 POP DUP3 DUP3 SUB SWAP1 POP DUP2 DUP2 GT ISZERO PUSH2 0x1DDB JUMPI PUSH2 0x1DDA PUSH2 0x1D7E JUMP JUMPDEST JUMPDEST SWAP3 SWAP2 POP POP JUMP JUMPDEST PUSH32 0x596F7520646F206E6F742068617665207065726D697373696F6E000000000000 PUSH1 0x0 DUP3 ADD MSTORE POP JUMP JUMPDEST PUSH1 0x0 PUSH2 0x1E17 PUSH1 0x1A DUP4 PUSH2 0x16DF JUMP JUMPDEST SWAP2 POP PUSH2 0x1E22 DUP3 PUSH2 0x1DE1 JUMP JUMPDEST PUSH1 0x20 DUP3 ADD SWAP1 POP SWAP2 SWAP1 POP JUMP JUMPDEST PUSH1 0x0 PUSH1 0x20 DUP3 ADD SWAP1 POP DUP2 DUP2 SUB PUSH1 0x0 DUP4 ADD MSTORE PUSH2 0x1E46 DUP2 PUSH2 0x1E0A JUMP JUMPDEST SWAP1 POP SWAP2 SWAP1 POP JUMP JUMPDEST PUSH32 0x596F752063616E6E6F74206368616E67652074686520636F6D6D697373696F6E PUSH1 0x0 DUP3 ADD MSTORE PUSH32 0x207769746820612067616D6520696E2070726F67726573730000000000000000 PUSH1 0x20 DUP3 ADD MSTORE POP JUMP JUMPDEST PUSH1 0x0 PUSH2 0x1EA9 PUSH1 0x38 DUP4 PUSH2 0x16DF JUMP JUMPDEST SWAP2 POP PUSH2 0x1EB4 DUP3 PUSH2 0x1E4D JUMP JUMPDEST PUSH1 0x40 DUP3 ADD SWAP1 POP SWAP2 SWAP1 POP JUMP JUMPDEST PUSH1 0x0 PUSH1 0x20 DUP3 ADD SWAP1 POP DUP2 DUP2 SUB PUSH1 0x0 DUP4 ADD MSTORE PUSH2 0x1ED8 DUP2 PUSH2 0x1E9C JUMP JUMPDEST SWAP1 POP SWAP2 SWAP1 POP JUMP JUMPDEST PUSH32 0x596F752063616E6E6F74206368616E6765207468652062696420776974682061 PUSH1 0x0 DUP3 ADD MSTORE PUSH32 0x2067616D6520696E2070726F6772657373000000000000000000000000000000 PUSH1 0x20 DUP3 ADD MSTORE POP JUMP JUMPDEST PUSH1 0x0 PUSH2 0x1F3B PUSH1 0x31 DUP4 PUSH2 0x16DF JUMP JUMPDEST SWAP2 POP PUSH2 0x1F46 DUP3 PUSH2 0x1EDF JUMP JUMPDEST PUSH1 0x40 DUP3 ADD SWAP1 POP SWAP2 SWAP1 POP JUMP JUMPDEST PUSH1 0x0 PUSH1 0x20 DUP3 ADD SWAP1 POP DUP2 DUP2 SUB PUSH1 0x0 DUP4 ADD MSTORE PUSH2 0x1F6A DUP2 PUSH2 0x1F2E JUMP JUMPDEST SWAP1 POP SWAP2 SWAP1 POP JUMP JUMPDEST PUSH1 0x0 PUSH2 0x1F7C DUP3 PUSH2 0x1615 JUMP JUMPDEST SWAP2 POP PUSH2 0x1F87 DUP4 PUSH2 0x1615 JUMP JUMPDEST SWAP3 POP DUP3 DUP3 SUB SWAP1 POP PUSH1 0xFF DUP2 GT ISZERO PUSH2 0x1FA0 JUMPI PUSH2 0x1F9F PUSH2 0x1D7E JUMP JUMPDEST JUMPDEST SWAP3 SWAP2 POP POP JUMP JUMPDEST PUSH32 0x4E487B7100000000000000000000000000000000000000000000000000000000 PUSH1 0x0 MSTORE PUSH1 0x12 PUSH1 0x4 MSTORE PUSH1 0x24 PUSH1 0x0 REVERT JUMPDEST PUSH1 0x0 PUSH2 0x1FE0 DUP3 PUSH2 0x142A JUMP JUMPDEST SWAP2 POP PUSH2 0x1FEB DUP4 PUSH2 0x142A JUMP JUMPDEST SWAP3 POP DUP3 PUSH2 0x1FFB JUMPI PUSH2 0x1FFA PUSH2 0x1FA6 JUMP JUMPDEST JUMPDEST DUP3 DUP3 DIV SWAP1 POP SWAP3 SWAP2 POP POP JUMP JUMPDEST PUSH1 0x0 PUSH2 0x2011 DUP3 PUSH2 0x142A JUMP JUMPDEST SWAP2 POP PUSH2 0x201C DUP4 PUSH2 0x142A JUMP JUMPDEST SWAP3 POP DUP3 DUP3 MUL PUSH2 0x202A DUP2 PUSH2 0x142A JUMP JUMPDEST SWAP2 POP DUP3 DUP3 DIV DUP5 EQ DUP4 ISZERO OR PUSH2 0x2041 JUMPI PUSH2 0x2040 PUSH2 0x1D7E JUMP JUMPDEST JUMPDEST POP SWAP3 SWAP2 POP POP JUMP JUMPDEST PUSH1 0x0 PUSH2 0x2053 DUP3 PUSH2 0x1522 JUMP JUMPDEST SWAP2 POP PUSH4 0xFFFFFFFF DUP3 SUB PUSH2 0x2069 JUMPI PUSH2 0x2068 PUSH2 0x1D7E JUMP JUMPDEST JUMPDEST PUSH1 0x1 DUP3 ADD SWAP1 POP SWAP2 SWAP1 POP JUMP INVALID MSTORE8 PUSH4 0x6973736F PUSH19 0x7320637574732070617065722E20506C617965 PUSH19 0x203220776F6E2E526F636B20627265616B7320 PUSH20 0x636973736F72732E20506C61796572203120776F PUSH15 0x2E526F636B20627265616B73207363 PUSH10 0x73736F72732E20506C61 PUSH26 0x6572203220776F6E2E506C6179657220312063686F6F73652068 PUSH10 0x732F686572206F707469 PUSH16 0x6E2E2057616974696E6720706C617965 PUSH19 0x20322E53636973736F72732063757473207061 PUSH17 0x65722E20506C61796572203120776F6E2E PREVRANDAO PUSH19 0x61772067616D652E20546865207072697A6520 PUSH24 0x617320646F75626C65642EA2646970667358221220B3264C 0xC7 0xB3 0xA6 GASPRICE 0xEC CHAINID DUP10 PUSH25 0x609D9565D286C7EFE49C1982C5F46B1D22A8EC7D6A64736F6C PUSH4 0x43000818 STOP CALLER "
        },
        "methodIdentifiers": {
          "getBalance()": "12065fe0",
          "getBid()": "099a019d",
          "getCommission()": "e65d6b49",
          "getLeaderboard()": "6d763a6e",
          "getResult()": "de292789",
          "play(uint8)": "53a04b05",
          "players(uint256)": "f71d96cb",
          "setBid(uint256)": "cef55b9a",
          "setCommission(uint8)": "8a44810d"
        }
      }
    }
  }
}